:1000000000800020BD010000C90800009508000024
:10001000950800009508000095080000950800006C
:10002000950800009508000095080000C908000028
:10003000C908000095080000C908000085080000F4
:10004000C9080000C9080000C9080000C90800006C
:10005000C9080000C9080000C9080000C90800005C
:10006000C9080000C9080000C9080000C90800004C
:10007000C9080000C9080000C9080000C90800003C
:10008000C9080000C9080000C9080000C90800002C
:10009000C9080000C9080000C9080000C90800001C
:1000A000D1490000C9080000C9080000C9080000C3
:1000B000C9080000C9080000C9080000C9080000FC
:1000C000C9080000C9080000C9080000C9080000EC
:1000D000C9080000C9080000C9080000C9080000DC
:1000E000C9080000C9080000C9080000C9080000CC
:1000F000C908000031170000C9080000791B000082
:10010000C9080000991E0000C9080000C9080000C5
:10011000C9080000C9080000C9080000C90800009B
:10012000C9080000C9080000C9080000C90800008B
:10013000C9080000C9080000C9080000C90800007B
:10014000C9080000C9080000C9080000C90800006B
:100150006D3A0000853A00009D3A0000B53A000073
:10016000C908000061210000C9080000C90800009A
:10017000C9080000C9080000C9080000C90800003B
:10018000C9080000C9080000C9080000C90800002B
:10019000C9080000C9080000C9080000C90800001B
:1001A000C9080000C9080000C9080000C90800000B
:1001B000C9080000C9080000153700005F4B4CF269
:1001C000205210B51A804DF628121A8000BF00BFC9
:1001D00000F07DFB5A4B4FF010621A60594A9A604A
:1001E000594ADA60594B1A6812F4807204D158499E
:1001F0000A604FF4A8521A60564B1A7802F00802AF
:10020000D2B21AB11A7842F008021A70524B53480F
:10021000534C2A221A700023524A02E0195999506D
:10022000043399188142F9D34F4B504A002101E021
:1002300043F8041B9342FBD34D494E4800231A5800
:100240005A500433B3F5DE7FF9D14B4B4B4A802132
:1002500003F8011B9342FBD1454A494B1A60494BB5
:100260000A221A70484B24221A70A02203F8012C8B
:10027000464A137803F00203DBB2002BF9D0434A5D
:10028000137803F01003DBB2002BF9D13F4A137847
:1002900003F00C03082BFAD13D4B03221A704022C5
:1002A0005A703A4A137803F02003DBB2002BF9D0DE
:1002B000364A137803F04003DBB2002BF9D0354BFC
:1002C000354A1A6002225A60344B20221A702F4A93
:1002D000137803F00C030C2BFAD1314A314B1A601E
:1002E000314B324A1A60072243F8042C304AC3F8D3
:1002F0000C2D62B600F0E1FF154B1B68DC0705D53D
:100300002C4800F06DFD2C4A2C4B1A602C4B1B78AE
:1003100003F04003DBB24BB1284C274A23689342D9
:1003200004D1244800F05CFD0023236005F082FD29
:1003300000F0D4FA02F00AFFFEE700BF0E200540ED
:1003400030800440823F04000100002B10D00340A5
:1003500014D0034002D0074000E00740CC8DFF1FBF
:10036000A4EA00006087FF1FCC8DFF1FF4A0FF1FD1
:100370000082FF1F0000000000E400E05FE400E0F6
:1003800008ED00E0005006400140064006400640EF
:100390000440064044800440000003010040064041
:1003A000C01005000480044014E000E0FF76010066
:1003B0000000202000DD6850A5C3945A1CE00340D3
:1003C00000F00740FFFFFFFFFFFFFFFFFFFFFFFF02
:1003D000FFFFFFFFFFFFFFFFFFFFFFFFFFFFFFFF2D
:1003E000FFFFFFFFFFFFFFFFFFFFFFFFFFFFFFFF1D
:1003F000FFFFFFFFFFFFFFFFFFFFFFFFFFFFFFFF0D
:10040000FFFFFFFFFFFFFFFFFFFFFFFFFEFFFFFFFD
:1004100008B548F6CC50074BC1F6FF701B1A062BE7
:1004200000D808BD40F20003C0F20003002BF8D052
:100430009847F6E7CF8DFF1F08B548F6CC5048F631
:10044000CC53C1F6FF70C1F6FF731B1A9B1003EB70
:10045000D373591000D108BD40F20002C0F200026F
:10046000002AF8D09047F6E710B548F6CC54C1F60C
:10047000FF74237873B9FFF7CBFF40F20003C0F29B
:1004800000032BB14EF6A420C0F20000AFF30080B1
:100490000123237010BD00BF08B540F20003C0F275
:1004A00000034BB14EF6A42048F6D051C0F2000034
:1004B000C1F6FF71AFF3008048F6CC50C1F6FF7073
:1004C00003682BB140F20003C0F2000303B1984768
:1004D000BDE80840FFF7B0BFF0B5304830490368C9
:1004E0001B06FCD40B6813F08002F8D172B62D4BBA
:1004F0001978002950D02C4908684F688E68CD685B
:100500000C6938181431801909684019001940180D
:10051000C0F34E00254940F400400860C86A0F6BE4
:100520004E6B8D6BCC6B38184031801909684019BF
:1005300000194018C0F34E001D4940F40040086007
:1005400001F10811143151F8140C51F8107C51F8D4
:100550000C6C51F8085C51F8044C09683818801983
:10056000401900194018C0F34E00124940F40040F1
:100570000860C86A0F6B4E6B8D6BCC6B38184031BE
:1005800080190968401900194018C0F34E000A4943
:1005900040F4004008601A7062B6F0BD24B0034019
:1005A00024B00B40E88DFF1F38B003402CB003404F
:1005B00030B003402CB00B4030B00B40224B6022D7
:1005C0001A70E1225A70214B214A1978214B0829CF
:1005D00001D1012102E00A2907D13921116013223A
:1005E0001A601D4B19605A600BE00C291A4901D1A1
:1005F000352000E03D20106012221A60174B086081
:100600001A60174B17495B78174A03B101230B6037
:1006100013600E4B154A5978154B012901D88021DA
:100620000CE0042901D8842108E0082901D885219B
:1006300004E0102901D8862100E0872111601960AB
:10064000074B01221A707047004007406487FF1F64
:1006500008B003400CB0034008B00B400CB00B4096
:10066000E88DFF1F20B0034020B00B4024B00340B2
:1006700024B00B400D4B5A7858B1AAB901215970DA
:100680001B7823B10A4B1A6003F500231A60FFF7A9
:1006900095BF4AB158701B78002BF8D0044B1860F6
:1006A00003F500231860F2E7704700BFE88DFF1FD5
:1006B00024B003400C2810B503D91023102807D804
:1006C00009E00A2806D8082894BF08230A2302E074
:1006D000184600E00C23DCB2084A0949201A907041
:1006E0000878834209D013780C7013B1054B0022AF
:1006F0001A60BDE81040FFF761BF10BDE88DFF1F15
:100700006487FF1F24B0034010B5114B1B780446CB
:100710000BB1FFF7E1FE012C0E4A01D8002302E0E5
:10072000042C02D8042313600EE0082C03D8052300
:100730001360082308E0102C03D80623136010234D
:1007400002E0072313602023034A537010BD00BF4B
:10075000E88DFF1F24B003406487FF1F0D282DE99B
:10076000F0410FD9172801D80E380AE0A0F11A037A
:10077000052B01D8093804E0A0F12203062B50D83C
:100780001838C0B2284B1C5C284B1B780BB1FFF704
:10079000A3FE72B6220617D4254D244E01272C60E5
:1007A000F77062B672B62B6813F0800F1F4B04D03F
:1007B000204A10680022DA7026E0F378002BEED091
:1007C00062B604F07DFAEDE704F040071A4D174ECB
:1007D000FFB204F03F044FF00108184B1A6817B13C
:1007E00022F0100201E042F010021A602C6086F83C
:1007F000048062B672B62B6813F0800F0B4B09D0E1
:100800000F4A106800221A7162B69B7840FA03F012
:10081000BDE8F0813379002BDFD062B604F050FAE6
:10082000E8E70020BDE8F08100E40000E88DFF1F4C
:1008300000B0034010B0034000B00B400CB00B40C0
:1008400010B00B400B4B1A6842F480521A600A4BEE
:100850005A780A4B0AB1802200E0C0221A7040F692
:10086000FF739842A8BF1846054B20EAE070188035
:10087000704700BF2C800440E88DFF1F21C00C4052
:1008800000C00C40024B1A6801321A60704700BF6A
:10089000788EFF1F38B50B4C25462368580301D5C9
:1008A00001F05EFC2B68590501D500F041FF2B6873
:1008B0001A0501D501F060F92368DB04EDD501F0DC
:1008C000EBFAEAE73480044008B5FFF7E3FF024B98
:1008D00010221A80704700BF002005407047034A6D
:1008E0001368181810601846704700BF6887FF1F0C
:1008F000002070474FF0FF3070474FF400534B60BB
:1009000000207047012070474FF0FF307047FEE72E
:10091000FEE70078D0F1010038BF002070470123C6
:1009200003707047EFF313839BB9EFF3108098B90E
:10093000EFF3058323B10F2B04D9084A985C01E03B
:100940004FF48070EFF311833BB1984228BF1846F3
:1009500070474FF0FF30704718467047F0E300E0F3
:10096000002300E00133C25C002AFBD11846704727
:1009700010B50023B0FBF2F402FB1400092801D8E3
:10098000303000E03730C85420460CB10133F1E775
:10099000CA185470224605E0885CCC5C8C54C8545C
:1009A0000132013B9A42F7DB084610BD031E10B529
:1009B0000C4603DBBDE81040FFF7DABF2D2001F83D
:1009C000010B5842FFF7D4FF204610BD2DE9F0433C
:1009D00085B090461E46894604F01EFB03AB00938B
:1009E000424602AB05F0C4F90746B8F1000F0AD140
:1009F000029B43B90778304B304A0125342F8CBF16
:100A000017461F4609E03846FFF7AAFF029B9842A7
:100A10000546C8BF451C03B90135039901B101352D
:100A2000C5EB0902002A06EB050309DD9B183446D5
:100A3000B218202001E004F8010B9442FBD100E041
:100A4000344611B12D2204F8012B029ABAB9B8F13B
:100A5000000F14D0302222702E22627002340EE079
:100A6000224617F8011B02F8011B9A420BD002998B
:100A70000139029109B96070A21C144600E02E20D1
:100A80009C42EDD300E01C46B9F1000F0DDA4D4455
:100A90006D4223466119202001E003F8010BCA1AB8
:100AA000002AFADC002DA8BF641900232370304609
:100AB00005B0BDE8F08300BF19E4000017E40000B2
:100AC0001F4B10B51C68E0031C6004D51D4B1A6851
:100AD0000AB11B689847A10304D51A4B5A680AB19A
:100AE0005B689847E20704D5164B1A6C0AB11B6C79
:100AF0009847A30704D5134B5A6C0AB15B6C98470F
:100B0000200704D50F4B9A6C0AB19B6C984761077C
:100B100004D50C4BDA6C0AB1DB6C9847220304D580
:100B2000084B5A6E0AB15B6E9847630306D5054BB6
:100B3000D3F8802012B1D3F88030984710BD00BFA1
:100B4000A0A00440F08DFF1F2C4B10B51C6820079F
:100B50001C6004D52A4B5A6A0AB15B6A9847E106C1
:100B600004D5274B9A6A0AB19B6A9847620604D556
:100B7000234BDA6A0AB1DB6A9847230604D5204B77
:100B80001A6B0AB11B6B9847A00604D51C4B5A6B15
:100B90000AB15B6B9847E10704D5194BDA6B0AB1D0
:100BA000DB6B9847A20704D5154B9A6D0AB19B6D74
:100BB0009847630704D5124BDA6D0AB1DB6D98478D
:100BC000A00504D50E4BDA6E0AB1DB6E9847E1053D
:100BD00004D50B4B1A6F0AB11B6F9847620504D5F9
:100BE000074B5A6F0AB15B6F9847230504D5044B36
:100BF0009A6F0AB19B6F984710BD00BFA0B0044028
:100C0000F08DFF1F1E4B10B51C68E0071C6004D55B
:100C10001C4B9A680AB19B689847210604D5194B6A
:100C20005A690AB15B699847E20604D5154B9A697F
:100C30000AB19B699847630704D5124BDA690AB178
:100C4000DB699847200704D50E4B1A6A0AB11B6A64
:100C50009847A10704D50B4B9A6B0AB19B6B984739
:100C6000A20604D5074B1A6D0AB11B6D984763069F
:100C700004D5044B5A6D0AB15B6D984710BD00BF97
:100C8000A0C00440F08DFF1F114B10B51C68E0049C
:100C90001C6004D50F4BDA680AB1DB689847A104E1
:100CA00004D50C4B1A690AB11B699847A20604D5F2
:100CB000084B1A6E0AB11B6E9847E30606D5054B22
:100CC000D3F8842012B1D3F88430984710BD00BF08
:100CD000A0900440F08DFF1F094B10B51C68A207BF
:100CE0001C6004D5074B9A6E0AB19B6E9847E307C8
:100CF00004D5044BDA6F0AB1DB6F984710BD00BF13
:100D0000A0D00440F08DFF1F1030024B43F820109C
:100D1000704700BF0082FF1F212830B531D8042A58
:100D20002FD8DFE802F00709050B03000B2306E0CC
:100D30000A2304E0082302E00C2300E00923114AFF
:100D4000114D02EBC0025468104AC2F89C51104D7C
:100D5000C2F8A0510F4DC2F8A4510F4DC2F8A851CE
:100D60000E4DC2F8AC5172B622680D4D22F47022BD
:100D7000226042F0807242EA034345F8201023606B
:100D800062B630BD1CE40000890C00000082FF1F29
:100D9000C10A0000490B0000050C0000D90C00003E
:100DA000F08DFF1F094B03EBC0035B6872B61A6836
:100DB00022F0877222F4803242F080721A60044B73
:100DC000002243F8202062B6704700BF1CE40000F8
:100DD000F08DFF1F014B1868704700BF00D0034023
:100DE000044B054900221A600A60044A1060102270
:100DF0001A60704714D0034004D0034000D0034071
:100E0000002810B50FDB02024FF4807347F6FF7421
:100E100000E00A46A24204D9013B012BC0EB0201CB
:100E2000F7D1120A11E0404202024FF4807348F2F7
:100E3000FF0400E00A46A24204D9013B012BC0EBAB
:100E40000201F7D1120AC2F58072013B024942EA5F
:100E500003220A6010BD00BF0CD0034018B1102857
:100E600028BF102000E00120014B1870704700BF20
:100E70006C87FF1F10B500234FF4377242FA03F45A
:100E8000A14202D80133072BF8D11B4A42FA03F2E0
:100E900002EB5102B2FBF1F101394FF6FF729142C0
:100EA00028BF1146C21E012A06D8144A144C00203D
:100EB0001060206013481AE0A0F11602012A05D93B
:100EC00015280AD8104C42B2944006D50F4A104C4F
:100ED0000020106020600F4809E0202801D0192868
:100EE00009D10D4A0D4C0020106020600C4843F0E1
:100EF00008030160136010BD006CDC020090034029
:100F00000490034008900340000C600600800340FA
:100F1000048003400880034000800B4004800B40A5
:100F200008800B40212810B518D80D4A52F83030EF
:100F300093F880423CB1012211B183F8802010BDAA
:100F400083F8002110BD02EBC00043681A6811B19C
:100F500042F0030201E022F002021A6010BD00BF5D
:100F60001CE40000212805D8034B53F8303093F8D7
:100F700000027047002070471CE40000212816D8AA
:100F80000B4A02EBC00301295B6852F8302004D100
:100F900082F880124FF4A27208E0002082F88002EA
:100FA00011B94FF4807201E040F203121A607047E9
:100FB0001CE40000282838B50A4604464E4B0FD1E1
:100FC0001B780B2B03D8C3F10C039A4003E00C2BC6
:100FD00001D00C3B1A411046BDE83840FFF732BC47
:100FE00019780125002A05FA01F301DC002102E04D
:100FF0009A4205D32946FFF795FF2046294676E019
:10100000C31E012B01D83D4B06E0202801D0192832
:1010100001D13B4B00E03B4B1B680133534323FAA8
:1010200001F3E11E1D2959D8DFE801F03F453927BA
:1010300058581B215858585858585858582D330F3D
:101040001558515858585858584B2F4A136040F269
:1010500044422E4B40E02E4A136040F244422D4B56
:101060003AE02D4A136040F244422C4B34E02C4AC3
:10107000136040F244422B4B2EE02B4A136040F2A7
:1010800044422A4B28E02A4A136040F24442294B4A
:1010900022E0294A136040F24442284B1CE0284ACF
:1010A000136040F24442274B16E0274A13604FF486
:1010B0005172264B10E0264A13604FF45172254BB3
:1010C0000AE0254A13604FF45172244B04E0244A8D
:1010D0001360244B4FF451721A6038BD7F2A2046AA
:1010E000D4BF00210121FFF71DFF20460121BDE8EB
:1010F0003840FFF743BF00BF6C87FF1F08900340D5
:1011000008800B40088003401080034004B0044076
:101110001880034008B00440208003400CB0044015
:101120002880034010B004403080034010C00440C9
:101130003880034014C004404080034018C004407D
:10114000488003401CC0044010900340309004408D
:10115000189003403490044010800B4048A0044095
:1011600018800B404CA004402DE9F04107460E4684
:1011700090460824012505EA08013846FFF7D2FE0B
:1011800001213046FFF7CEFE002130466D00FFF70B
:10119000C9FE013CEDB2EED1BDE8F0812DE9F04190
:1011A00007460E4690460824802505EA0801384681
:1011B000FFF7B8FE01213046FFF7B4FE00213046AC
:1011C000FFF7B0FE6D08013CEFD1BDE8F08112B928
:1011D0001A46FFF7C9BF1A46FFF7E0BF2DE9F041F5
:1011E00080460F4608240025012638460121FFF7D6
:1011F00099FE4046FFF7B6FE00B135430021384660
:101200007600FFF78FFE013CF6B2EED12846BDE82E
:10121000F0812DE9F04180460F4608240025802604
:1012200038460121FFF77EFE4046FFF79BFE00B1E6
:10123000354300213846FFF775FE7608013CEFD1B3
:101240002846BDE8F0810AB9FFF7C8BFFFF7E1BF44
:1012500072B60C4B0C491A680C4BD3F888300968ED
:1012600062B6490102D5322A88BF0133C2F5BB32CA
:10127000FF326021B2FBF1F24FF47A7000FB0320E1
:10128000704700BF18E000E004ED00E0F08DFF1FA4
:1012900070B50446FFF7DCFF05466CB140F2E73657
:1012A000FFF7D6FF401BB04203D9013C04D005F53F
:1012B0007A7503F005FDF3E770BD1E4B4FF4000295
:1012C00010B51A604FF080721A604FF000721A6009
:1012D0004FF080621A604FF000621A60164B174A96
:1012E000174C00204BF6FF711860596028231360DB
:1012F0009360136193611362936213639363092292
:101300002260104C20606160A360236144F8042CCB
:101310000D4C20600D4801600D490B608B600D4B3A
:101320001A60FFF74BF90420FFF7B2FFBDE8104049
:1013300001F03CBA08E100E0048003400C80034067
:10134000008003400490034004800B4008800B4061
:101350000C800B4000800B4070B50E2405464C43BA
:1013600003E0013C01D1002070BD2B78002BF8D1A7
:1013700001E0013CF7D02B78002BFAD0FFF768FF93
:10138000064601E0013CEED02B78002BFAD1FFF7A6
:101390005FFF801B70BD70B50E2405464C4303E013
:1013A000013C01D1002070BD2B78002BF8D001E06A
:1013B000013CF7D02B78002BFAD1FFF749FF064606
:1013C00001E0013CEED02B78002BFAD0FFF740FF74
:1013D000801B70BD21280BD8064B53F8300000F558
:1013E000007011B11146FFF7B7BF1146FFF7D3BF29
:1013F000002070471CE40000174B1A6842F480621A
:101400001A60164B00221A705A709A70DA701A71AC
:10141000134B40F213321A604FF451725A60114B61
:10142000C0F344321A70C0F347125A7002210422EA
:1014300000F01F0098729A70D9745A7588221A7435
:101440003C22DA70084B40226FF44A711A705B1824
:101450004FF400521A607047348004407C8EFF1FA6
:1014600040A0044000A006402DE400E0134A937819
:1014700000F0030103F0EC030B43410748BF43F0C6
:101480001003937000F00F03042B0C4903D18B79E8
:1014900043F040038B715379C20603F0EF03074A10
:1014A00048BF43F0100353719379800603F0EF03B4
:1014B00048BF43F010039371704700BF00A006407F
:1014C0000D4B1B68580510B503D410BD03F0F8FB95
:1014D00000E00A4C2379094A002BF7D108494FF460
:1014E0000050086007490848CB7040F203110160C2
:1014F00041601370537010BD348004407C8EFF1F18
:1015000084E100E000A0064040A0044038B5094B4B
:1015100004461D79002DFCD120460121FFF72EFD48
:1015200020462946FFF7FEFC034B53F83420014BBD
:101530009A6038BD7C8EFF1F1CE40000F8B51A4B82
:101540001B685A0507462DD5184A93680BB101212F
:1015500019709478154D164E01343F2C88BF002425
:1015600014E0FFF7DFF940280CDC33791B060DD5BA
:10157000EB7801333F2B88BF0023EA18127BF2710E
:10158000EB7003E0FF2801DD03F09AFBEA78074BDC
:10159000A242E6D01A19177301221A719C70044BEB
:1015A000BC22DA70F8BD00BF348004407C8EFF1F7F
:1015B00000A0064000F00F00092801D8303000E0FC
:1015C0003730FFF7BBBF2DE9F84F254B1B680746A7
:1015D00058058A4641D5234B9B680BB101221A70EE
:1015E000204C3E46A34631E0A5789BF803800135A8
:1015F0003F2D88BF0025A84507D0631916F8012B99
:101600001A7301232371A57020E0174BBC22DA70F6
:101610009946FFF787F9402810DC99F8043019063D
:1016200010D5E37801333F2B88BF00230BEB030277
:10163000127B89F807208BF8033003E0FF2801DDD7
:1016400003F03EFBE3784345E3D0D6E707EB0A031C
:101650009E42C9D3044BBC22DA70BDE8F88F00BFAC
:10166000348004407C8EFF1F00A0064010B5044C5F
:1016700001E003F025FB2379002BFAD110BD00BF58
:101680007C8EFF1F044A9378D078834201D33F3089
:1016900000E00138C01A70477C8EFF1F034A1078A3
:1016A0005378984238BF4030C01A70477C8EFF1F75
:1016B000084A11785378994208D001333F2B88BFEC
:1016C0000023D11891F84C00537070474FF0FF3051
:1016D000704700BF7C8EFF1F074A117853789942EC
:1016E00007D001333F2B88BF0023D31893F84C0059
:1016F00070474FF0FF3070477C8EFF1F094B1B680F
:101700005B050DD5084BDA7802F0CB02DA70402287
:101710005A74DA7842F03402DA70044B5A781A704C
:10172000704700BF3480044000A006407C8EFF1F3D
:1017300070B52C4B1A7912F0300F1DD072B6997D0E
:1017400021B9DA7940225A7462B615E062B62648A9
:10175000027844781D46531C3F2B88BF0023A342C8
:10176000EE7903D0C21882F84C601A46013911F0A4
:10177000FF01F0D11C4B1A701A4AD37818465BB29D
:10178000002B1ADA1379190617D517498D78CB78FB
:10179000AB420AD001333F2B88BF00231479CC1809
:1017A000247BD471147D072CF2D90F4AD3700D4BD2
:1017B0001A79120601D57C22DA7000F04003DBB200
:1017C00073B1084B1A7902F04002D2B219463AB10D
:1017D000054B00221A719B6803B11A703C23CB7031
:1017E00070BD00BF00A006407C8EFF1F38B5451EAF
:1017F00007E00A2C02D10D20FFF7A0FE2046FFF7DC
:101800009DFE15F8014F002CF3D138BD10B50446EC
:101810000009FFF7CFFE2046BDE81040FFF7CABE23
:1018200010B50446000AFFF7F1FF2046BDE810405E
:10183000FFF7ECBF10B50446000EFFF7E7FF200CE2
:10184000FFF7E4FF200AFFF7E1FF2046BDE8104064
:10185000FFF7DCBF164B1A6842F400621A60154BA2
:1018600000221A705A709A70DA701A71124B40F294
:1018700013321A604FF451725A60104BC0F3443265
:101880001A70C0F347125A7000F01F0004220221A0
:1018900098729A70D9745A7588221A743C22DA7038
:1018A000074B40221A70074B4FF400421A607047F2
:1018B00034800440088FFF1F0CB0044000B0064085
:1018C0002FE400E004E100E0134A937800F0030104
:1018D00003F0EC030B43410748BF43F01003937040
:1018E00000F00F03042B0C4903D18B7943F0400324
:1018F0008B715379C20603F0EF03074A48BF43F0E8
:10190000100353719379810603F0EF0348BF43F04E
:1019100010039371704700BF00B006400D4B1B6869
:10192000180510B503D410BD03F0CAF900E00A4C45
:101930002379094A002BF7D108494FF40040086089
:1019400007490848CB7040F20311016041601370F1
:10195000537010BD34800440088FFF1F84E100E005
:1019600000B006400CB0044038B5094B04461D7960
:10197000002DFCD120460121FFF700FB204629461F
:10198000FFF7D0FA034B53F83420014B9A6038BD6F
:10199000088FFF1F1CE40000F8B51A4B1B681A05DE
:1019A00007462DD5184A93680BB101211970947818
:1019B000154D164E0134272C88BF002414E0FEF785
:1019C000B1FF40280CDC33791B060DD5EB780133D1
:1019D000272B88BF0023EA18127BF271EB7003E01B
:1019E000FF2801DD03F06CF9EA78074BA242E6D04C
:1019F0001A19177301221A719C70044BBC22DA70F9
:101A0000F8BD00BF34800440088FFF1F00B00640BF
:101A10002DE9F84F244B1B68074618058A4641D527
:101A2000224B9B680BB101221A70204C3E46A34604
:101A300031E0A5789BF803800135272D88BF00256C
:101A4000A84507D0631916F8012B1A7301232371D7
:101A5000A57020E0164BBC22DA709946FEF762FFB3
:101A6000402810DC99F80430190610D5E3780133CA
:101A7000272B88BF00230BEB0302127B89F807207A
:101A80008BF8033003E0FF2801DD03F019F9E37858
:101A90004345E3D0D6E707EB0A039E42C9D3044B84
:101AA000BC22DA70BDE8F88F34800440088FFF1F35
:101AB00000B0064010B5044C01E003F001F92379B1
:101AC000002BFAD110BD00BF088FFF1F044A937886
:101AD000D078834201D3273000E00138C01A704724
:101AE000088FFF1F034A10785378984238BF403060
:101AF000C01A7047088FFF1F084A1178537899421F
:101B000008D001333F2B88BF0023D11891F834004F
:101B1000537070474FF0FF30704700BF088FFF1FB2
:101B2000074A11785378994207D001333F2B88BF79
:101B30000023D31893F8340070474FF0FF307047FC
:101B4000088FFF1F094B1B681B050DD5084BDA7862
:101B500002F0CB02DA7040225A74DA7842F0340292
:101B6000DA70044B5A781A70704700BF3480044012
:101B700000B00640088FFF1F70B52C4B1A7912F089
:101B8000300F1DD072B6997D21B9DA7940225A748E
:101B900062B615E062B62648027844781D46531CAA
:101BA0003F2B88BF0023A342EE7903D0C21882F8EE
:101BB00034601A46013911F0FF01F0D11C4B1A7044
:101BC0001A4AD37818465BB2002B1ADA1379190631
:101BD00017D517498D78CB78AB420AD00133272B24
:101BE00088BF00231479CC18247BD471147D072C72
:101BF000F2D90F4AD3700D4B1A79120601D57C2207
:101C0000DA7000F04003DBB273B1084B1A7902F0CE
:101C10004002D2B219463AB1054B00221A719B68B4
:101C200003B11A703C23CB7070BD00BF00B00640FA
:101C3000088FFF1F154B1A6842F480521A60144A2D
:101C40000023137053709370D3701371114A40F2D4
:101C5000133111604FF4517151600F4AC0F3443198
:101C60001170C0F3471100F01F0051709072937013
:101C700013742C23D370094B40226FF44B711A70EC
:101C80005B184FF400321A60704700BF3480044084
:101C90007C8FFF1F08C0044000C0064031E400E014
:101CA000134A937800F0030103F0EC030B43410760
:101CB00048BF43F01003937000F00F03042B0C494E
:101CC00003D18B7943F040038B715379C20603F043
:101CD000EF03074A48BF43F010035371937980061E
:101CE00003F0EF0348BF43F010039371704700BF48
:101CF00000C006400D4B1B68D80410B503D410BDBE
:101D000002F0DEFF00E00A4C2379094A002BF7D1EC
:101D100008494FF40030086007490848CB7040F28A
:101D20000311016041601370537010BD3480044092
:101D30007C8FFF1F84E100E000C0064008C0044023
:101D400038B5094B04461D79002DFCD120460121F0
:101D5000FFF714F920462946FFF7E4F8034B53F840
:101D60003420014B9A6038BD7C8FFF1F1CE40000BB
:101D7000F8B51A4B1B68DA0407462DD5184A936844
:101D80000BB1012119709478154D164E0134272C92
:101D900088BF002414E0FEF7C5FD40280CDC337931
:101DA0001B060DD5EB780133272B88BF0023EA18DB
:101DB000127BF271EB7003E0FF2801DD02F080FF7F
:101DC000EA78074BA242E6D01A19177301221A715A
:101DD0009C70044BAC22DA70F8BD00BF3480044024
:101DE0007C8FFF1F00C0064038B54518044603E04D
:101DF00014F8010BFFF7BCFFAC42F9D138BD10B5A8
:101E0000034C01E002F05CFF2379002BFAD110BDF6
:101E10007C8FFF1F044A9378D078834201D3273008
:101E200000E00138C01A70477C8FFF1F034A10780A
:101E30005378984238BF4030C01A70477C8FFF1FDC
:101E4000084A11785378994208D001333F2B88BF54
:101E50000023D11891F83400537070474FF0FF30D1
:101E6000704700BF7C8FFF1F074A11785378994253
:101E700007D001333F2B88BF0023D31893F83400D9
:101E800070474FF0FF3070477C8FFF1F014B5A782F
:101E90001A7070477C8FFF1F10B5204B1A7902F023
:101EA0002002D2B26AB11E4AD87913785178013330
:101EB0003F2B88BF00238B4203D0D11881F8340018
:101EC00013701649CB7818465BB2002B12DA0B79E7
:101ED0001B060FD5124A9478D3789C4202D16C230A
:101EE000CB7007E00133272B88BF0023D418247B55
:101EF000CC71D37000F04003DBB273B1074B1A7999
:101F000002F04002D2B219463AB1054B00221A71D2
:101F10009B6803B11A702C23CB7010BD00C0064023
:101F20007C8FFF1F1FB572B6154B70221A70154AB1
:101F3000412111700F2102F8011C80221A701A78B9
:101F40001206FCD5104B186862B6104B984201D8A7
:101F50000A23584301A90A22FEF70AFD0C48002370
:101F600001AA9A5C2AB100EB430101330A2B4A8093
:101F7000F6D10133064A5B00137005B000BD00BF07
:101F80000000024007000240080002407F969800CF
:101F90006E87FF1F70B50C4B0C4C1A7842F002058F
:101FA00004EBC50682F00102706058781A700028B0
:101FB0000CBF8826C82646EA014180F0010044F89B
:101FC0003510587070BD00BFF08FFF1F0080FF1FDD
:101FD000431E032B10B510D872B6094A02EB8302D8
:101FE000506840B141685160064A018832F8134098
:101FF000611A22F8131062B610BD002010BD00BF98
:10200000F08FFF1FE09FFF1F013803280DD8084BFA
:1020100003EB8000436972B6002002E01A885B6817
:102020008018002BFAD162B670470020704700BFBD
:10203000F08FFF1F013803280CD872B6064B03EB54
:1020400080004369002001E05B680130002BFBD178
:1020500062B6704700207047F08FFF1F70B572B6F0
:102060001A4E1B4C01239A1912F8012C02F0080297
:10207000D2B2F2B19900164A54F831502DB902EBA0
:10208000431308305860134B09E041F0010154F844
:10209000315075B902EBC103083058600E4B42F85D
:1020A00031300E4B93F82420013A83F8242062B695
:1020B00070BD0133052BD6D162B6084B002283F8E0
:1020C0002420BDE8704000F0CFBB00BF2CE500002D
:1020D0000080FF1F88004000C8004000F08FFF1FF5
:1020E000421E032A30B533D840011A4B40F010008D
:1020F000181872B6184CA31893F82530032B09D87A
:10210000DFE803F0130215050830022310E0083061
:1021100004230DE09200A318586908B9596101E041
:10212000DB6A5960A218D16211E0032300E00523A5
:10213000A21810F0080F82F8253001F108030A8870
:1021400043600CBF8823C82343EA0243036062B69E
:1021500030BD00BF0080FF1FF08FFF1F00BE704723
:102160002DE9F74FAB4EAC4C357805F00403DBB2EC
:10217000BBB1AA4B93F844208AB193F845202AB109
:10218000013AD2B283F8452002B900BEA44A1378BE
:102190002BB1013BDBB213700BB900F0E1FC04235F
:1021A000337005F00802D2B2002A00F0AF829D4BD6
:1021B0001B781D094FEA930940F0058204EBC9031F
:1021C000596854F83930C3F38303013B0C2B00F2F8
:1021D000F681DFE813F0AB01AB01F401F401F40187
:1021E000F401F401F401C901F401F401F4010D005A
:1021F0004B688A480A68C3648B4B826440F28165ED
:1022000092B244F8393001210023AA4203652361C8
:10221000A361417017D8B2F5D06F80F02C81B2F570
:10222000817F00F0E58006D8802A00F0C580822AF0
:1022300040F04081C5E040F202339A4200F00A814A
:10224000B2F5A06F16E042F22105AA4200F06B81C0
:1022500008D8B2F5086F00F0A880B2F5106F40F012
:1022600029810AE042F221218A4200F01E8142F2D5
:1022700021339A4240F01E8120E190F84A30664DA9
:1022800080F844302B6A180603D5686A083800F0D5
:10229000EBFA664908358D42F4D1DFF8B0B100257C
:1022A000A846D9460BF1500A55F80B0005E04368E3
:1022B000009300F0D9FA009B18460028F7D15C4B38
:1022C00049F8050045F80A00E85807E0426800931D
:1022D000019200F0C9FA019A009B10460028F5D13E
:1022E0005851544BE850544B23F81800534B18F8EE
:1022F0000320023A032A08D8DFE802F002040204AD
:10230000002200E0012203F8082008F1010804354A
:10231000B8F1040FC8D1414BDFF83491002283F8A3
:10232000242001259846464B05EB0902EB1812F8CC
:10233000012C9B001A7002F00802D2B23AB300F0EE
:1023400075FAAB0038B104EB4512083050603D4AD5
:1023500044F8332006E044F8330098F82430013381
:1023600088F8243000F062FAAB0043F0010338B182
:1023700004EBC302083050602B4A44F8332006E0D7
:1023800044F8330098F82430013388F82430AA0048
:1023900042F00201013542F003020023052D44F80A
:1023A000313044F83230BED189E090F844300546EF
:1023B00005F83C3F0B4687E080F83C3080F83D3024
:1023C0007FE0B0F84C20042A00D973E080F83C305C
:1023D00080F83D301C4B9200D3181B7803F00203A9
:1023E000DBB2002B6DD00546022305F83C1F6BE0E5
:1023F000B0F84C2002F07F03042B5BDCB0F84A30CD
:1024000003B157E09100104A8A18117821F00201B7
:102410004EE000BF802007400080FF1FF08FFF1FAD
:10242000E590FF1F90200740C80040008080FF1FFC
:102430000490FF1F1C90FF1FE09FFF1F1590FF1FC0
:1024400030C8011088004000C0200740F48FFF1FF3
:102450002CE50000B0F84C2002F07F03042B29DCAF
:10246000B0F84A3003B125E091009E4A8A181178ED
:1024700041F002011CE0B0F84A20B0F84C109A4B31
:1024800053F8085CA3F10C00A5B133F80CCC9445CB
:1024900009D133F80ACC8C4505D1120A032A0CBFA6
:1024A0002B78038910E00C33EAE790F84A108F4A42
:1024B000117004E08B4B0F221A7034E000231D468C
:1024C00002E0022300F13C05894AB2F84E904B45E8
:1024D00038BF9946B9F1400F34BFC8464FF04008A5
:1024E00028464146FFF756FDB9EB0809454403D19C
:1024F000B8F1400F07D016E0B9F1400F34BFC8461D
:102500004FF0400800E0C84628464146FFF742FD2C
:10251000B9EB0809454402D1B8F1400F03D1744A20
:102520001565A2F864900122724B47E0704BB3F836
:10253000482042F221039A4212D16F4A0023C85C1C
:1025400098540133072BFAD16B4B1B68862B03D1B0
:10255000674B0F2283F8452000200146FFF71AFD44
:10256000664B44F839302AE0DFF88491D9F850807E
:10257000B8F1000F16D0B9F864A0BAF1400F34BF1B
:102580005546402540462946FFF704FDC5EB0A03A2
:102590009BB2A9F864300BB9402D01D108EB0503BB
:1025A000534A1365524BB3F84820B2F5A06F06D1D9
:1025B000002283F8492093F84A20514B1A704D4B62
:1025C00001221A708AE004EBC90803F00803D8F866
:1025D0000420013DD9B2A2F10800EDB2002945D096
:1025E00000F042F9424B03EB8500416921B34A6890
:1025F000426101F10802C8F804205A1992F8252016
:10260000032A10D8DFE802F00205080B5D19032346
:1026100007E05D19022304E05D19052301E05D195F
:10262000042385F8253018F0080F0A880CBF88238A
:10263000C82343EA02434FE05A1992F82520032A9F
:102640000BD8DFE802F04B4B02055D19002301E0D7
:102650005D19012385F8253040E018F0080F1D446E
:102660000CBF0222032285F8252037E054F83930C8
:102670001B0C22F8083C4BB322F8061C42F8041C41
:102680001B4A4FEA850E02EB0E0194464A680AB9CE
:10269000486001E04A6D50600CEB0E02DFF850A07C
:1026A0005065184A32F815105B1822F8153000F002
:1026B000BDF818B10830C8F8040007E09AF82430D3
:1026C00044F8390001338AF8243007E00B4B0E4AF6
:1026D00018F0080F08BF134644F839300823337048
:1026E00042E500BFC02007403CE50000E690FF1F28
:1026F000F08FFF1F94200740E89FFF1FC800400095
:1027000098200740E09FFF1F88004000E90720D580
:102710001D4C1E481E4D21460223037001F8682BF4
:102720001C4BA8341D6059601A619A619D60DC6081
:10273000194B0D2119701949FF230B7001F8083C42
:102740000A74174A1370174B9F221A7001230370E3
:1027500018E02B0605D5104B0D221A70802203F8C5
:10276000402C05F00203DBB22BB10C4B1A781A7027
:10277000022203F8082C05F01005EDB215B10A4B42
:1027800010221A70BDE8FE8FF08FFF1F94200740C3
:10279000880040000080FF1FC020074088200740BD
:1027A0008C200740842007408020074010B5FFF7A9
:1027B000B9FB0023174819461950C4180833882B51
:1027C000144A6160F8D1144B196841F480211960F2
:1027D000124BC2F307211970C2F30741120E19758B
:1027E0001A760F4AFF2313700021137202F8703C0F
:1027F0000123137582F8801013710A4B70226FF455
:10280000507C1A7063444FF400721A60064B102219
:102810001A7010BD0080FF1F348004409C200740C8
:102820008020074049E400E00821074072B60C4AC6
:102830001168B1FA81F30B2B02D962B60020704700
:102840004FF0004020FA03F021EA0001116062B667
:10285000044948225343C8180022CA5042607047B6
:102860000C88FF1F0084FF1F0C4B4822C31AB3FBC8
:10287000F2F30B2B11D80A4A127822B1094A1278C6
:102880000AB1FFF7EBBB72B6074A4FF0004121FADD
:1028900003F311681943116062B670470084FF1F8B
:1028A0001490FF1F3490FF1F0C88FF1F38B5114C88
:1028B00023684BB10F4D28684288811801320C7A89
:1028C00001888A4212D30CE00B4B1B7813B94FF0EE
:1028D000FF340CE00320FFF77BFB20600028E9D1E8
:1028E000F5E7FFF7C1FF00232B6000E042802046A0
:1028F00038BD00BFD890FF1F3490FF1F10B50C4C9F
:1029000023681BB10A4B1B686BB902E0094B1B78AB
:1029100013B94FF0FF3010BD0320FFF759FB2060C3
:102920000028EFD1F5E75A889B18187A10BD00BF30
:10293000D890FF1F3490FF1F044B9888044B1B68EE
:102940001BB11A885B88D31AC0187047E09FFF1F1D
:10295000D890FF1F2DE9F0470E4681464FF0000842
:10296000DFF868A0184F2AE09AF800304BB33B68B4
:102970004BB90320FFF72CFB386010B3038813B961
:10298000FFF772FFF5E73C68618825886D1AAE4253
:1029900038BF3546083148462A46611803F05CFDC9
:1029A0006388A944A844761BED182388ADB2AB42D6
:1029B000658004D82046FFF757FF00233B60002EB8
:1029C000D2D14046BDE8F087D890FF1F3490FF1F5A
:1029D00010B5094B1B786BB1084C206818B1FFF794
:1029E00043FF002323600320FFF7F2FA10B1FFF743
:1029F0003BFFF8E710BD00BF3490FF1FD890FF1FCA
:102A00002DE9F8432B4CDFF8B08001230D462371EC
:102A1000064647E0A3681BBB4AF2F9274FF00109BD
:102A200098F8003013B9234A137112E00420FFF71D
:102A300001FB072806D884F80490FFF7F7FEA06092
:102A400070B92071013F01D0237B33B1194B0122B2
:102A50001A734FF0FF30BDE8F88302F031F9DFE779
:102A6000A1684888C0F14002954238BF2A4600F16B
:102A70000807002380182373CF194880AD1A02E09D
:102A8000F05CF85401339342FAD1F6184B883F2B8F
:102A900006D940230B800420FFF722FB0023A3600C
:102AA00005236373002DB5D1024B28461D71BDE887
:102AB000F88300BFD890FF1F3490FF1F07B502AB0B
:102AC000012103F8010D1846FFF79AFF0EBD0F4BC9
:102AD000012210B51A719A681C467AB90C4B1B7802
:102AE00013B90020207110BD0420FFF7A3FA0728B6
:102AF000F7D8FFF79BFEA0600028F2D0034B9A683E
:102B000050880022C0F140001A7110BDD890FF1FFC
:102B10003490FF1F70B5104B1B78DBB10F4CA568CC
:102B2000012626714DB16B880026667304202B8028
:102B30002946FFF7D5FAA66009E0FFF777FE0146C0
:102B400020B104206573FFF7CBFA00E06673034BF6
:102B500000221A7170BD00BF3490FF1FD890FF1F74
:102B600038B50C4C25799DB9A16831B14B8804204A
:102B70000B80FFF7B5FAA56038BDFFF757FE014699
:102B800020B10420BDE83840FFF7AABA01236373DF
:102B900038BD00BFD890FF1FF8B505460E46072484
:102BA000012700216878FEF7BDF907FA04F13140EA
:102BB00018BF01212878FEF7B5F901216878FEF7E2
:102BC000B1F914F1FF34ECD2F8BDF8B504460E4665
:102BD0008078002117460025FEF7A4F909E0204679
:102BE0003146FFF7D9FF20463946FFF7D5FF0135BB
:102BF000EDB2237AAB42F2D8A0780121FEF792F928
:102C0000A0780021BDE8F840FEF78CB9F8B543681C
:102C100004460E46002B24D0072922D880780021B4
:102C2000C6F10807FEF77EF90025FFB20CE020464A
:102C30003946FFF7B1FF63689B19204613F835103A
:102C4000FFF7AAFF0135EDB2237AAB42EFD8A078A7
:102C50000121FEF767F9A0780021BDE8F840FEF7F2
:102C600061B9F8BD01F007020B21FFF7AEBF01F01B
:102C70000F020A21FFF7A9BF10B54468C4B1407A1A
:102C8000884215D9072A13D801F0F80011F007017E
:102C900008BF08210139C9B21218012000FA01F158
:102CA00013B1A35C194302E0A35C23EA0101A15420
:102CB00010BD38B505461446FFF7DEFF284621460D
:102CC000BDE83840FFF7A2BF82B02DE9F84F0AAC4B
:102CD00081468A46904644F8043F15461DE0314639
:102CE0003A46204600F0E2F806EB0A0B5FFA8BFB4F
:102CF0000346594648462A460136FFF7BDFFF6B25D
:102D000000E00026204600F081F88642E7D32946FD
:102D10004846FFF77BFF0135EDB2204600F078F81A
:102D2000C8EB0507FFB28742EBD3BDE8F84F02B00E
:102D3000704738B5436805466BB938BD6968C9182E
:102D400001F832000132D2B2297A9142F6D8013329
:102D5000082B02D103E0002318460022F4E70024E8
:102D6000214601342846E4B2FFF750FF082CF7D182
:102D700038BD38B504468370427001701046012199
:102D80009DF81050FEF7FAF820780121FEF7F6F8CA
:102D9000A0780121FEF7F2F840212572284602F0C2
:102DA000A3FFED00606065722046FFF7C2FF20467A
:102DB0000721FFF757FF20460F21FFF758FF204656
:102DC0000C210122FFF701FF204609210022FFF715
:102DD000FCFE20460F210022FFF7F7FE204638BDFB
:102DE00010B5082928BF082104460170082A34BFFD
:102DF000104608206070012102F076FFA06010BD2F
:102E000010B50446FFF7ECFF204610BD0078704770
:102E10004078704730B584688CB105788D420ED902
:102E2000407890420BD9012003F0010303FA01F32B
:102E300000FA01F1A05C20EA01011943A15430BD60
:102E400008B42DE9F34F0646884691469DF82C704C
:102E5000FFF7C6FFB36823B30CAB0193002508F15D
:102E6000FF3B00245FFA85FA444508DA082C0BD1B1
:102E700005E0019B1A1D01921F780135F1E709F168
:102E8000FF339D42F5D10CE0C4EB0B0347FA03F38B
:102E9000E1B23046524603F00103FFF7BBFF0134B5
:102EA000E2E73046BDE8FC4F01B07047836810B5DB
:102EB0005BB104788C420AD94078904207D9985C7B
:102EC00040FA01F000F0010010BD184610BD0020CE
:102ED00010BDFFFF38B50D4C0E202568FDF73EFCF8
:102EE00002F0DAFC236804EB850504EB830202336D
:102EF0000021B3F5007F68602360916004DB044823
:102F0000BDE8384000F076BE38BD00BFE890FF1F36
:102F1000EC98FF1F0A4B00221A600A4B0A4A1B68F2
:102F200092FBF3F3002B0ADB084A591E914206D8A4
:102F300030225A4306480749013A00F064BE704700
:102F4000E890FF1F1088FF1F40420F0054555505A1
:102F5000EC98FF1FD52E0000034B1868B0F5007FDA
:102F6000B4BF002001207047E890FF1F38B51B4B0D
:102F70001B4C186802F03EF800221A4B02F0A0F831
:102F8000194B002202F09CF802F07CFB0021054660
:102F900002F0D6FC2946C4F818082846C4F81C5884
:102FA00002F0C6FB1149C4F82008284602F0C8FC0C
:102FB0004FF08141C4F82408284602F0C1FC0023E8
:102FC000C4F82C380A4BC4F82808C4F83038094B28
:102FD000C4F83438084BC4F8383838BD1088FF1F9F
:102FE000E890FF1F0000E03F0000D03F000040409D
:102FF0000000F042000070430000B44310B5134CD1
:103000002046FFF796FE20460121FFF730FE002103
:103010000E20FDF7B3FF0A20FDF74CFB1020FDF753
:1030200073FB0D200121FDF7A9FF0D200121FDF704
:1030300079FF0021412204F10C0003F02DFBFFF782
:1030400095FFBDE81040FFF765BF00BF2499FF1F43
:1030500037B51B4C1B4D04F5096393E803008DE85D
:1030600003000021D4F88C3828460A46FFF72CFECE
:1030700005F1600393E8030000228DE80300D4F813
:10308000983828460921FFF71FFE05F16C0393E8E5
:10309000030000228DE80300D4F8A438284611214B
:1030A000FFF712FE05F1780393E8030000228DE894
:1030B0000300D4F8B03828461921FFF705FE3EBDBD
:1030C000E890FF1F2499FF1F37B51B4C1B4D04F5DB
:1030D0000C6393E803008DE803000021D4F8BC38AA
:1030E00028460A46FFF7F0FD05F1900393E8030038
:1030F00000228DE80300D4F8C83828460921FFF7DC
:10310000E3FD05F19C0393E8030000228DE8030032
:10311000D4F8D43828461021FFF7D6FD05F1A803CE
:1031200093E8030000228DE80300D4F8E038284635
:103130001821FFF7C9FD3EBDE890FF1F2499FF1F2E
:1031400010B5044600F056FD204610BD08B5FFF747
:1031500055FF62B60D200121FDF710FF0A4E0B4D01
:103160000B482024FFF7E5FDFFF772FF4FF47A705C
:103170003460FEF78DF8FFF7A7FF2C604FF47A70EC
:10318000FEF786F8ECE700BF84F00F4088F00F40B0
:103190002499FF1F2DE9F04F8BB060254FF07C097B
:1031A0000821009501950295039504950A462B4642
:1031B000CDF81490CDF81890A648DFF8DC82FFF720
:1031C0003FFE18264FF01E0C4FF01F0ACDF808C026
:1031D000CDF80CC0052108225346CDF800A0019679
:1031E0000496CDF814A0CDF818A09B48CDF824C0C3
:1031F0006624FFF725FE4FF0780B6E270821019714
:103200000294039404970A465B46CDF80090CDF8EB
:103210001490CDF818B09148FFF712FE73207B216F
:103220007F226F238DE80F00672308210493632317
:10323000059306930A468A48FFF702FE08218DE8A7
:10324000800A059706940A462346CDF80CB0CDF8BF
:10325000109008F50E60FFF7F3FD7E273C238DE804
:1032600018000294039704970594069407210822F6
:1032700033467C48FFF7E4FD3C230094019402941C
:103280000394049405970693072108222346764861
:10329000FFF7D6FD00970195049505950695082240
:1032A0003B46CDF808B0CDF80CB007216F48FFF7CA
:1032B000C7FD082100970194029403970595069590
:1032C0000A464B46CDF810906948FFF7B9FD0097C4
:1032D000072108223B46019602960396049605961E
:1032E000069608F50B60FFF7ABFD9921FF27C32376
:1032F000A5220291039108210124009301920492D6
:1033000005930A463B4606975A48FFF799FD214622
:103310000822234600940194029403940494059493
:10332000069408F511600025FFF78AFD08210A467A
:103330002B460095019502950395049505950695F4
:103340004D48FFF77DFDCC21E123D222029103916C
:10335000082100930192049205930A463B46069782
:103360004648FFF76DFD0F23DDF824C003930323C8
:1033700004930E23CDF808C0069305210822CDF84A
:1033800000A00196CDF814A03D48FFF759FD214655
:1033900008222B4600950195029503950495059505
:1033A000069508F51460FFF74BFD214608222B46D1
:1033B000009501950295039504950595069431486D
:1033C000FFF73EFD21462B4600950195029503959A
:1033D00004950594069408222B48FFF731FD2146F9
:1033E00008222B46009501950295039504940594B7
:1033F00006942648FFF724FD214608222B46009517
:1034000001950295039404940594069408F51760B9
:10341000FFF716FD214608222B46009501950294E0
:1034200003940494059406941948FFF709FD214676
:1034300008222B4600950194029403940494059469
:1034400006941448FFF7FCFC21460822234600940A
:1034500024E000BFD499FF1FE099FF1F7499FF1F5C
:10346000BC99FF1F8099FF1FB099FF1F8C99FF1F08
:10347000A499FF1FEC99FF1F049AFF1F109AFF1FCA
:103480001C9AFF1F349AFF1F409AFF1F4C9AFF1F80
:10349000649AFF1F709AFF1FE890FF1F0194029427
:1034A00003940494059406941248FFF7C9FC21463E
:1034B00008222346009401940294039404940594F2
:1034C000069408F51A60FFF7BBFC04230093294615
:1034D000022223460848FFF74CFC08480849094ADD
:1034E00088F80458802388F811380BB0BDE8F04FF5
:1034F00002F0ECBB7C9AFF1F2499FF1FEC98FF1F82
:10350000413100006087FF1FF0B5C02928BFC021EE
:1035100072B6124B002283E805009A60DA601A61E5
:103520005A619A6101260AE0540903EB840402F00F
:103530001F07656806FA07F73D43656001328A4256
:10354000F2D100234FF4827203E002FB03046370A4
:1035500001338B42F9D162B6F0BD00BF949EFF1FCC
:1035600030B572B61E4B586860B9986860B9D868B3
:1035700060B9186960B9586960B99869183358B961
:1035800062B630BD043307E0083305E00C3303E0D6
:10359000103301E01433FFE7B0FA80F44FF000423B
:1035A00022FA04F220EA02000D4A1860117F01316C
:1035B000C9B2117762B6101D1B1A9B105B011C1B50
:1035C0004FF48273634303F5FB531C3314680125E6
:1035D000E554E018537F8B4238BF517730BD00BFB0
:1035E000949EFF1F417872B60378012B02D9013BEC
:1035F000037010E0094B4A1103EB8202C9434FF0FC
:10360000004001F01F0120FA01F1506808435060AA
:103610001A7F013A1A7762B6704700BF949EFF1F67
:1036200030B5C3680EE0187A90420AD158685C7AC7
:10363000006950F8245025B940F82410087801306A
:103640000870DB68002BEED130BD437A99424FF011
:10365000000305D2026952F8210042F82130704778
:103660001846704738B5437A994201D3002418E0D0
:10367000036953F82140002243F82120002CF5D0A3
:103680002378012B0DD9FFF76BFF054628B10430D5
:10369000211D4FF4807202F0DFFE2378013B23707E
:1036A0002C46204638BD4368427A5B7A9A420FD84E
:1036B00072B60268D36813B9D06004E00B46D968CB
:1036C0000029FBD1D860012313724268137262B6DD
:1036D0007047074B9A7F4AB9064AD0211170064AB3
:1036E0004FF08041012011609877704700207047AB
:1036F000949EFF1F5EE400E008E100E0034B4FF002
:1037000080421A60024B00229A77704788E100E0FD
:10371000949EFF1FF8B5164B164D1A6842F0807242
:103720001A60154B1A6842F001021A60134B2E689A
:103730001C6A0FE0237A63B121682F680B6820466A
:1037400098472B68E288DB1B1B099342A38088BF44
:10375000E3806469002CEDD1064B1A68074B921B7D
:10376000D98C12098A429A8488BFDA84F8BD00BFD6
:10377000FCED00E0041000E0001000E0949EFF1F4C
:10378000704708B50368C9B21B68984708BD08B5FB
:103790000368C9B21B68984708BD08B50368C9B279
:1037A0001B68984708BD08B50368C9B21B689847ED
:1037B00008BD084608B5FDF7C1FE012008BD084652
:1037C00008B5FDF7BBFE012008BD38B508460D461B
:1037D000FDF7C6F8044621462846FDF7F4FE2046CC
:1037E00038BD10B5084614461146FDF7ECFE2046DC
:1037F00010BDFDF747BFFDF781BFFDF737BFFDF7F0
:1038000057BFFDF769BFFDF749BF0846FDF77EBE0C
:10381000FDF756BE480800F1376000F5D830B0FB20
:10382000F1F0FDF7E9BD480800F1376010B500F58B
:10383000D830B0FBF1F01446FDF7DEFD2046BDE8C0
:103840001040FDF713BEFFFF044B00221A711A73DC
:10385000034A4FF47A7199601A607047BC9EFF1F4B
:1038600090E50000704708B50368C9B21B68984727
:1038700008BD08B50368C9B21B68984708BD08B5FC
:103880000368C9B21B68984708BD08B50368C9B288
:103890001B68984708BD084608B5FEF77DF801206B
:1038A00008BD084608B5FEF777F8012008BD38B511
:1038B00008460D46FDF754F8044621462846FEF713
:1038C000A7F8204638BD10B5084614461146FEF745
:1038D0009FF8204610BDFEF7F9B8FEF733B9FEF7A2
:1038E000E9B8FEF709B9FEF71BB9FEF7FBB80846C1
:1038F000FEF73AB8FEF712B8480800F1376000F555
:10390000D830B0FBF1F0FDF7A5BF480800F13760F3
:1039100010B500F5D830B0FBF1F01446FDF79AFF72
:103920002046BDE81040FDF7CFBFFFFF044B00224B
:103930001A711A73034A4FF47A7199601A607047CA
:10394000CC9EFF1FE0E50000704708B50368C9B2D0
:103950001B68984708BD08B50368C9B21B6898473B
:1039600008BD08B50368C9B21B68984708BD08B50B
:103970000368C9B21B68984708BD084608B5FEF73A
:10398000F7F9012008BD084608B5FEF7F1F9012056
:1039900008BD38B508460D46FCF7E2FF044621464F
:1039A0002846FEF721FA204638BD10B508461446D1
:1039B0001146FEF719FA204610BDFEF72BBAFEF7A6
:1039C00065BAFEF71CBAFEF73BBAFEF74DBAFEF732
:1039D0002DBA0846FEF7B4B9FEF78CB9480800F1D5
:1039E000B76000F55840B0FBF1F0FEF723B9480886
:1039F00000F1B76010B500F55840B0FBF1F0144687
:103A0000FEF718F92046BDE81040FEF749B9FFFF60
:103A1000044B00221A711A73034A4FF47A719960A9
:103A20001A607047DC9EFF1F30E6000070B5064646
:103A30000D46002433190A2219792846002301343F
:103A400000F058F9042C05D02B6828461B682E215D
:103A50009847EFE7204670BD024B034A1A600022E8
:103A60005A607047EC9EFF1F80E6000008B5034BCC
:103A700001221A60024B1B68984708BD0C71034075
:103A8000F49EFF1F08B5034B01221A60024B5B68CE
:103A9000984708BD1C710340F49EFF1F08B5034BF7
:103AA00001221A60024B9B68984708BD2C710340A5
:103AB000F49EFF1F08B5034B01221A60024BDB681E
:103AC000984708BD3C710340F49EFF1F054B1A68E0
:103AD00042F400021A60044B00221A60034B0122D8
:103AE0001A7470473C80044000700340F49EFF1F2E
:103AF000054B01221A60054B1A6822F400021A6075
:103B0000034B00221A747047007003403C8004404D
:103B1000F49EFF1FF0B54578134C144F2B011A1972
:103B20004260134A9E188660066947F825600025A2
:103B30009D501951032199504378427B4433DBB2A5
:103B4000037303F1604303F5644301211A70037B9F
:103B50005A11920002F1604202F5614203F01F0324
:103B600001FA03F31360F0BD00710340F49EFF1FE0
:103B700008710340F8B50D4B1B7C06460F460BB988
:103B8000FFF7A4FF0024094D05F11102A25C42B920
:103B90007470304639462C19FFF7BCFF0120607461
:103BA000F8BD0134042CEED10020F8BDF49EFF1FB7
:103BB0008268002310B51360027B0121541102F0CA
:103BC0001F0201FA02F2094941F82420084A41780B
:103BD000511811324B74995C31B90133042BFAD16D
:103BE000BDE81040FFF784BF10BD00BF80E100E0DA
:103BF000F49EFF1F037810B504460BB1FFF7D8FF02
:103C00000023237010BD037870B504460D46164698
:103C10001BB1FFF7CDFF00232370256120463146FD
:103C2000FFF7A8FF10B10123237000E02070207877
:103C300070BD00BFFFFFFFFFF8B506460C468F18AA
:103C4000002506E0336814F8011B1B6830469847CE
:103C50002D18BC42F6D12846F8BD2DE9F0410025CB
:103C60008AB0074688468C682E4611E02B464046AF
:103C700001A9212200F00BFC3B68202C34BF224616
:103C800020225B68384601A9AD18A41A9847361857
:103C9000002CEBD130460AB0BDE8F08107B5054BEA
:103CA0001B88ADF80430036801A95B6802229847BD
:103CB0000EBD00BF88E6000008B503685B68984742
:103CC000002008BD0EB403B503AA52F8041B0192EC
:103CD00004F0E6FCBDE80C4003B070470EB403B539
:103CE00003AA52F8041B019204F0DAFCBDE80C4070
:103CF00003B07047F0B505468BB022B90368C9B26E
:103D00001B6898472CE0012A08BF0A2221B93022FB
:103D10008DF82520212413E02124B1FBF2F002FBD1
:103D20001011C9B2092901D8303100E037310AAF8A
:103D30003E1906F8241C014610B1013CE4B2ECE740
:103D400033B1013C0AAAE4B213192D2203F8242C42
:103D50002B6801AF5B6828463919C4F122029847E5
:103D60000BB0F0BD002902DA49422D2300E0002308
:103D70000A22FFF7BFBF2DE9F347074691469A464F
:103D800010461946002200239DF8284001F00AFC45
:103D900020B10AF1004A4FF0010800E080460026F9
:103DA0000022314B0AE0104619462DA3D3E9002327
:103DB00001F086F9013602460B46F6B2A642F2D170
:103DC0004846514600F0CAFF0D46044601F03AFC51
:103DD00081464346384649460A22FFF78BFF804614
:103DE000002E37D0484601F0F5F8072E28BF0726E9
:103DF0000B4602462946204600F0AEFF01362E2330
:103E00008DF80030F6B24FF001091BE00022174B8D
:103E100001F056F90D46044601F014FC02AA02EB2B
:103E20000903C0B200F1300203F8082C01F0E2F8F7
:103E300009F1010902460B46204629465FFA89F935
:103E400000F08AFFB145E1D13B6838465B686946BE
:103E50004A4698474046BDE8FC8700BFAFF3008064
:103E60009A9999999999B93F0000E03F0000244040
:103E700004480549054A002303728023437508302E
:103E800001F024BF0C9FFF1F413100006087FF1F1E
:103E900010B50446006802F00BF8204610BD38B596
:103EA00004460D460068013102F060FC10B184E860
:103EB0002100012038BD43688B4210B5044600D371
:103EC00006E0FFF7ECFF20B1A3680BB9226813707E
:103ED000012010BDF8B504460F46154622B9036807
:103EE00003B11A7000230BE01146FFF7E4FF06460A
:103EF00040B9206810B101F0DBFF26600023636049
:103F0000A36004E0A5602068394602F0A1FF2046C6
:103F1000F8BD002310B5044603604360836003735B
:103F200000F06CFC204610BD38B500230446036049
:103F30004360836003730D4639B10846FCF710FDFA
:103F4000294602462046FFF7C5FF204638BD38B552
:103F5000054600680C4660B16A688B689A4206D3D1
:103F6000096802F075FFA368AB6000230AE001F066
:103F70009FFF23682B6063686B60A368AB600023BE
:103F800023606360A36038BD002310B5044603605E
:103F9000436083600373FFF7DAFF204610BD002300
:103FA00010B504460360436083600373FFF7CFFFDF
:103FB000204610BD81420B4603D009689A68FFF77E
:103FC00089BF7047002310B50446036043608360D7
:103FD0000373FFF7EFFF204610BD884210B504467B
:103FE00001D0FFF7B4FF204610BD884210B504464B
:103FF00001D0FFF7ACFF204610BD38B505460C4692
:1040000041B10846FCF7ACFC214602462846FFF7C2
:1040100061FF00E0A960284638BD10B500238AB0D2
:10402000044603604360836003736B460846911C3B
:10403000FCF7CCFC01462046FFF7DFFF20460AB024
:1040400010BD10B500238AB004460360436083604E
:104050000373084601A9FCF78BFC204601A9FFF772
:10406000CCFF20460AB010BD10B500238AB004462C
:104070000360436083600373084601A9FCF796FC64
:10408000204601A9FFF7B9FF20460AB010BD10B5C0
:10409000002386B0044603604360836003730846D0
:1040A00001A9FCF765FC204601A9FFF7A6FF204601
:1040B00006B010BD10B5002386B00446036043600F
:1040C00083600373084601A9FCF770FC204601A930
:1040D000FFF793FF204606B010BD13B5002304463A
:1040E00003604360836003730A22084601A9FCF75A
:1040F0003FFC204601A9FFF780FF20461CBD10B5FC
:10410000044600F07BFB204610BD07B500238DF868
:104110000410012201A98DF80530FFF7DBFE0EBD6A
:10412000002310B504460360436083600373FFF708
:10413000ECFF204610BD70B504460E4685685AB1A6
:1041400055192946FFF7B7FE30B12068A3683146FC
:10415000C01802F07DFEA560204670BD0B460968C0
:104160009A68FFF7E8BF38B505460C4639B10846EE
:10417000FCF7F6FB214602462846FFF7DCFF2846FF
:1041800038BD13B5002304468DF80410012201A99F
:104190008DF80530FFF7CFFF20461CBD1FB5044644
:1041A0000A22084601A9FCF701FC01A8FCF7D8FB8C
:1041B00001A902462046FFF7BEFF204604B010BD0D
:1041C0001FB504460A22084601A9FCF7D1FB01A845
:1041D000FCF7C6FB01A902462046FFF7ACFF2046CC
:1041E00004B010BD1FB504460A22084601A9FCF719
:1041F000DDFB01A8FCF7B4FB01A902462046FFF74E
:104200009AFF204604B010BD1FB504460A22084696
:1042100001A9FCF7ADFB01A8FCF7A2FB01A902462E
:104220002046FFF788FF204604B010BD10B588B0C7
:10423000044602226B4608460421FCF7C7FB684689
:10424000FCF78EFB694602462046FFF774FF2046C6
:1042500008B010BD0B4610B509689A680446FFF710
:104260006AFF204610BD38B505460C4639B10846F0
:10427000FCF776FB214602462846FFF75CFF2846FE
:1042800038BD38B5044608460D46FCF769FB29469B
:1042900002462046FFF74FFF204638BD10B50446C2
:1042A000FFF76FFF204610BD10B50446FFF776FFFD
:1042B000204610BD10B50446FFF794FF204610BD00
:1042C00010B50446FFF7A0FF204610BD10B5044608
:1042D000FFF788FF204610BD10B50446FFF794FF96
:1042E000204610BD10B50446FFF7A0FF204610BDC4
:1042F00010B519460446104601F0C4F9014620469F
:10430000FFF794FF204610BD03680A680BB15AB945
:1043100005E022B1896811B11078404270473BB185
:10432000806830B1187870471846114602F0A2BC78
:104330001846704708B582688B689A4206D1FFF725
:10434000E3FFD0F1010038BF002008BD002008BD08
:10435000826808B50B461AB901B103E0012008BD17
:1043600011B90368187802E0006802F083FCD0F10C
:10437000010038BF002008BD08B5FFF7C5FFC00F1A
:1043800008BD08B5FFF7C0FF0028D4BF00200120FA
:1043900008BD08B5FFF7B8FF0028CCBF00200120FA
:1043A00008BD08B5FFF7B0FFC043C00F08BD884285
:1043B000F8B514D083688A68934212D17BB106683D
:1043C0000D68002408E004F01FF90746285D04F09A
:1043D0001BF90134874204D1305D0028F3D101205C
:1043E000F8BD0020F8BD10B58B688468E41AA242BD
:1043F0000CD8006868B1096851B180181A4602F0FB
:1044000085FDD0F1010038BF002010BD002010BD97
:10441000084610BD82688B689A4202D30022FFF7DB
:10442000E2BF0020704708B582688B689A420CD3BF
:10443000006868B1096851B1D31AC01802F01AFCBB
:10444000D0F1010038BF002008BD002008BD08469B
:1044500008BD836899423CBF03685A54704783681B
:10446000994201D2006818B90248002303707047CE
:10447000401870472C9FFF1F8368994203D2006841
:1044800010B1405C704700207047FFF7F5BF38B5AA
:104490000C469AB191B181688B4202D300232370FC
:1044A00038BDCD1A013A0168954228BF1546C91892
:1044B00020462A4602F080FD0023635538BD8368FC
:1044C0009A4210B506D20468A01802F053FB08B156
:1044D000001B10BD4FF0FF3010BD0022FFF7EFBFF3
:1044E00083689A4210B507D204680968A01802F0E0
:1044F00017FF08B1001B10BD4FF0FF3010BD0022A8
:10450000FFF7EEBFF8B583689A42044602D34FF036
:10451000FF30F8BD0368551C00225F5D5A550668E0
:10452000304602F07BFD77550028F0D02368C01A92
:10453000F8BD8268013AFFF7E5BF2DE9F041154665
:104540008A680F46CAB18368BBB19A4215D806681B
:104550009D4228BF5D1E30464FF0FF3406EB050834
:1045600008E0396802F0DCFE48B1831BAB4298BF1B
:104570001C4601304045F4D901E04FF0FF3420469D
:10458000BDE8F08182688B68D21AFFF7D6BF9A42E5
:10459000F8B504460D4602D911461A460B460020CE
:1045A000A060AE682060B242606020730CD8B34255
:1045B00038BF1E462B689F5D98552968204689188C
:1045C000FFF71BFD2B689F552046F8BD10B58B6883
:1045D0000446FFF7DCFF204610BD036810B543B169
:1045E00003E08C4208BF03F8012C13F8014B002CA8
:1045F000F7D110BD2DE9F74FD0F808A004460F46BB
:104600001646BAF1000F7CD0D1F808B0BBF1000F0C
:1046100077D093680568CBEB0308B8F1000F0ED193
:1046200005E03168B26801F017FFB368ED1828465D
:10463000396802F075FE05460028F2D161E001DA22
:10464000A94616E00B68D14622E0C5EB0A0B2946C5
:1046500048465A46D94401F0FFFE48463168B268E0
:1046600001F0FAFEB368BD689944A3684344554419
:10467000A3602846396802F053FE82460028E4D140
:104680004846294602F0E4FB3BE000EB0B05C14441
:1046900019462846019302F043FE019B0028F4D1FD
:1046A000D1452ED0636899450ED920464946FFF77B
:1046B000F6FB30B308E0002A23DB20463946FFF73B
:1046C0003CFF051E05DA1CE0A2684FF00009013A24
:1046D000F1E7BA682168A368AA18891801EB0800F5
:1046E0009A1A01F073FFA36822684344A36002F89A
:1046F00003902068B2683168401901F0ADFE6A1E6F
:10470000D9E72046BDE8FE8F8368994203D203684B
:10471000816000225A54704738B50B4681688B423D
:10472000044612D28AB1D018884288BFC3EB010276
:104730008D1A2168A560D218C8188918EA1A01F0E4
:1047400045FF2268A3680021D154204638BD38B502
:104750000468054644B103E003F056FF04F8010C79
:1047600014F8010B0028F7D1284638BD38B5046885
:10477000054644B103E003F055FF04F8010C14F8BA
:10478000010B0028F7D1284638BD2DE9F041076814
:10479000044627B3866816B3B846454608F10108B3
:1047A000287801F073FB0028F7D1013EBE1930785C
:1047B00001F06CFB28B90136721BBD42A26007D91B
:1047C00002E0AE4209D2F6E73846294601F044FE3F
:1047D0002268A3680021D15401E0013EE7E72046AA
:1047E000BDE8F081006808B101F076BA7047006852
:1047F00010B1002103F006BE0020704738B5054611
:1048000008460C46FCF7ACF8214602462846BDE8AF
:104810003840FFF75FBBFFFF054AD37803F0020380
:10482000DBB2002BF9D0024B0222DA70704700BFD6
:104830000060064010B50A4B1A781C460AB95B782E
:104840002BB1A378064A202B03D901230371002042
:1048500010BDD0180133C1709370012010BD00BF8E
:10486000309FFF1F7047034B93F8240093F82530C7
:10487000C01A7047309FFF1F084B93F8252093F80C
:104880002410914206D99918013291F8260083F834
:10489000252070474FF0FF30704700BF309FFF1F4B
:1048A000064B93F8252093F82410914203D99B18C6
:1048B00093F8260070474FF0FF307047309FFF1F7E
:1048C00070B50D4B1D7814461A460DB95B7883B14F
:1048D0009578C5F121039C4202D9012202711C4640
:1048E000054EF01C401922462D1901F0B5FDB5709A
:1048F00000E01C46204670BD309FFF1F38B5104BAE
:10490000104CDB7813F020050AD11220FCF74AFA8C
:10491000A36CA3B184F8255094F82400984738BDBF
:1049200094F84C300133DBB2012B84F84C3001D8C1
:10493000637823B91220BDE83840FCF733BA38BD9C
:1049400000600640309FFF1F002202710273034A7D
:104950004FF47A7181600260704700BFA8E60000E2
:104960000B4B00225A700B4B1A6842F040021A603F
:10497000094A4FF41973136042F8043C074B27228D
:104980005A7004229A7120225A7180229A707047BC
:10499000309FFF1F348004400CA00440006006409C
:1049A00010B50C46FFF7DCFF064B074A64000121F7
:1049B0001C705170C0229A70044B4FF080721A60C4
:1049C00010BD00BF00600640309FFF1F00E100E007
:1049D00038B5384AD37803F01001C9B221B903F0D1
:1049E0004002D2B242B92CE01021D17003F0400253
:1049F000D2B2002AF3D138BD13F004032E4C16D0E6
:104A0000002384F84D30A370236D03B19847A2783A
:104A1000294B12B901219970DA70264AD02393707C
:104A2000254BD9781171012283F854203DE084F898
:104A3000243001221F4B84F84D20C0229A701B792C
:104A400033E01C4CA27812F0100218D013F00103CE
:104A500011D1194A92F854109078884206D9531807
:104A60000131DB78237182F8541000E02371114B7F
:104A7000D0229A7019E0C023A370237915E00E4D5F
:104A80000E4985F84C2012200322FCF745F995F8D1
:104A9000243021791F2B08D895F84D202AB1EA1827
:104AA000013382F8261085F82430024B0222DA7096
:104AB00038BD00BF00600640309FFF1FFD4800006A
:104AC000034B01224900D9701A709A70704700BFD9
:104AD000309FFF1FF8B51D4B1222DA709A7802F052
:104AE0002002D2B20F460AB1B42209E0DA7802F00D
:104AF0002002D2B2002AF9D1154B5A70134BB022C2
:104B00009A700024124D114E12E02B19DB7833718C
:104B1000FFF782FEF378DA0704D5002C14BF0320D8
:104B200002200BE003F01003DBB233B90134E4B22E
:104B3000AB78A342E9D8002000E0042017B1034B72
:104B400080229A70024B00221A70F8BD0060064065
:104B5000309FFF1F2DE9F0471F46334B14460022BC
:104B600083F8252083F82420304A1223D3709378C9
:104B700003F02003DBB213B1B42393700AE0D378BF
:104B800003F02003DBB2002BF9D1274A5370274BE7
:104B9000B0229A70254D490041F001012971FFF7BB
:104BA0003BFEEB7813F0110F2A4604D08023AB7044
:104BB0000020BDE8F0872CB9002F0CBFA02780276C
:104BC000AF70F5E7012C01D1A82300E0A02393707A
:104BD0001379DFF85C80DFF8549025464FF0A80A7F
:104BE0000BE0013DEDB2FFF717FE012D08BF89F87C
:104BF00002A099F8043008F8013F012D0B4EF0D1C6
:104C0000FFF70AFEB023B370074B3179621E53FAE7
:104C100082F2204682F826100FB18022B27083F80B
:104C20002440BDE8F08700BF309FFF1F00600640B2
:104C3000559FFF1F0123FFF78DBFC9B2D2B20123D9
:104C4000FFF788BFC9B2D2B2DBB2FFF783BFC9B2E8
:104C5000FFF736BF0121FFF73DBFC9B2FFF7A0BE86
:104C6000014B9964704700BF309FFF1F014B1965CE
:104C7000704700BF309FFF1F0148FFF765BE00BFB0
:104C8000889FFF1F704708461146FDF7B9BE0846CA
:104C9000FDF714BFFDF73EBFFDF730BEFDF706BEC2
:104CA000FDF74ABE044B00221A711A73034A4FF4EF
:104CB0007A7199601A607047989FFF1FC8E60000DC
:104CC00008B50E4B1A78C2B901221A70FDF734FEEE
:104CD00008B1FFF7D7FFFCF7E1FC08B1FEF750FD84
:104CE000FCF700FF08B1FEF7BDFDFDF79FF808B126
:104CF000FEF72AFE014B00221A7008BDA89FFF1F75
:104D000050EA010201D102207047D0F1010238BF00
:104D10000022B1F1004F08BF0028F4D021F0004379
:104D20004FF6FF71A3F58010C7F6DF71884201D8F6
:104D300004207047B3F5801F01D203207047002084
:104D4000C7F6F070834214BF002002F001007047E4
:104D500081F0004102E000BF83F0004330B54FEA2C
:104D600041044FEA430594EA050F08BF90EA020F99
:104D70001FBF54EA000C55EA020C7FEA645C7FEA2C
:104D8000655C00F0E2804FEA5454D4EB5555B8BF4F
:104D90006D420CDD2C4480EA020281EA030382EAC0
:104DA000000083EA010180EA020281EA0303362D52
:104DB00088BF30BD11F0004F4FEA01314FF4801C25
:104DC0004CEA113102D0404261EB410113F0004F37
:104DD0004FEA03334CEA133302D0524263EB4303EE
:104DE00094EA050F00F0A780A4F10104D5F1200E8C
:104DF0000DDB02FA0EFC22FA05F2801841F10001E7
:104E000003FA0EF2801843FA05F359410EE0A5F1BA
:104E100020050EF1200E012A03FA0EFC28BF4CF0EB
:104E2000020C43FA05F3C01851EBE37101F00045A1
:104E300007D54FF0000EDCF1000C7EEB00006EEBAE
:104E40000101B1F5801F1BD3B1F5001F0CD3490838
:104E50005FEA30004FEA3C0C04F101044FEA44528F
:104E600012F5800F80F09A80BCF1004F08BF5FEA16
:104E7000500C50F1000041EB045141EA050130BDF6
:104E80005FEA4C0C404141EB010111F4801FA4F199
:104E90000104E9D191F0000F04BF01460020B1FAEE
:104EA00081F308BF2033A3F10B03B3F120020CDA26
:104EB0000C3208DD02F1140CC2F10C0201FA0CF004
:104EC00021FA02F10CE002F11402D8BFC2F1200C69
:104ED00001FA02F120FA0CFCDCBF41EA0C0190401F
:104EE000E41AA2BF01EB0451294330BD6FEA040468
:104EF0001F3C1CDA0C340EDC04F11404C4F1200253
:104F000020FA04F001FA02F340EA030021FA04F364
:104F100045EA030130BDC4F10C04C4F1200220FABB
:104F200002F001FA04F340EA0300294630BD21FAF9
:104F300004F0294630BD94F0000F83F4801306BFBF
:104F400081F480110134013D4EE77FEA645C18BFB3
:104F50007FEA655C29D094EA050F08BF90EA020F4A
:104F600005D054EA000C04BF1946104630BD91EA42
:104F7000030F1EBF0021002030BD5FEA545C05D145
:104F80004000494128BF41F0004130BD14F5800484
:104F90003CBF01F5801130BD01F0004545F0FE41F8
:104FA00041F470014FF0000030BD7FEA645C1ABF2D
:104FB000194610467FEA655C1CBF0B46024650EA64
:104FC000013406BF52EA033591EA030F41F4002190
:104FD00030BD00BF90F0000F04BF0021704730B516
:104FE0004FF4806404F132044FF000054FF00001EB
:104FF00050E700BF90F0000F04BF0021704730B5AC
:105000004FF4806404F1320410F0004548BF404280
:105010004FF000013EE700BF42004FEAE2014FEAD5
:1050200031014FEA02701FBF12F07F4393F07F4FB0
:1050300081F06051704792F0000F14BF93F07F4FE2
:10504000704730B54FF4607401F0004521F0004125
:1050500020E700BF50EA010208BF704730B54FF0AB
:1050600000050AE050EA010208BF704730B511F0B0
:10507000004502D5404261EB41014FF4806404F1E8
:1050800032045FEA915C3FF4DCAE4FF003025FEA6A
:10509000DC0C18BF03325FEADC0C18BF033202EBF2
:1050A000DC02C2F1200300FA03FC20FA02F001FA4C
:1050B00003FE40EA0E0021FA02F11444C1E600BFEB
:1050C00070B54FF0FF0C4CF4E06C1CEA11541DBF9E
:1050D0001CEA135594EA0C0F95EA0C0F00F0DEF869
:1050E0002C4481EA030621EA4C5123EA4C5350EA4E
:1050F000013518BF52EA033541F4801143F480139F
:1051000038D0A0FB02CE4FF00005E1FB02E506F02F
:105110000042E0FB03E54FF00006E1FB03569CF084
:10512000000F18BF4EF0010EA4F1FF04B6F5007F8A
:1051300064F5407404D25FEA4E0E6D4146EB0606FC
:1051400042EAC62141EA55514FEAC52040EA5E5085
:105150004FEACE2EB4F1FD0C88BFBCF5E06F1ED82F
:10516000BEF1004F08BF5FEA500E50F1000041EB66
:10517000045170BD06F0004646EA010140EA020013
:1051800081EA0301B4EB5C04C2BFD4EB0C0541EA35
:10519000045170BD41F480114FF0000E013C00F34A
:1051A000AB8014F1360FDEBF002001F0004170BD6E
:1051B000C4F10004203C35DA0C341BDC04F1140487
:1051C000C4F1200500FA05F320FA04F001FA05F213
:1051D00040EA020001F0004221F0004110EBD370E0
:1051E00021FA04F642EB06015EEA430E08BF20EA0C
:1051F000D37070BDC4F10C04C4F1200500FA04F3AF
:1052000020FA05F001FA04F240EA020001F0004140
:1052100010EBD37041F100015EEA430E08BF20EAB3
:10522000D37070BDC4F1200500FA05F24EEA020EFB
:1052300020FA04F301FA05F243EA020321FA04F02A
:1052400001F0004121FA04F220EA020000EBD370E1
:105250005EEA430E08BF20EAD37070BD94F0000FE1
:105260000FD101F00046400041EB010111F4801F15
:1052700008BF013CF7D041EA060195F0000F18BFC6
:10528000704703F00046520043EB030313F4801F02
:1052900008BF013DF7D043EA0603704794EA0C0FBC
:1052A0000CEA135518BF95EA0C0F0CD050EA4106D2
:1052B00018BF52EA4306D1D181EA030101F000414F
:1052C0004FF0000070BD50EA410606BF1046194677
:1052D00052EA430619D094EA0C0F02D150EA013683
:1052E00013D195EA0C0F05D152EA03361CBF1046C4
:1052F00019460AD181EA030101F0004141F0FE4163
:1053000041F470014FF0000070BD41F0FE4141F4E6
:10531000780170BD70B54FF0FF0C4CF4E06C1CEAE6
:1053200011541DBF1CEA135594EA0C0F95EA0C0F9B
:1053300000F0A7F8A4EB050481EA030E52EA033556
:105340004FEA013100F088804FEA03334FF0805577
:1053500045EA131343EA12634FEA022245EA1115A4
:1053600045EA10654FEA00260EF000419D4208BF55
:10537000964244F1FD0404F5407402D25B084FEA02
:105380003202B61A65EB03055B084FEA32024FF4AE
:1053900080104FF4002CB6EB020E75EB030E22BF0B
:1053A000B61A754640EA0C005B084FEA3202B6EBCB
:1053B000020E75EB030E22BFB61A754640EA5C007A
:1053C0005B084FEA3202B6EB020E75EB030E22BF0A
:1053D000B61A754640EA9C005B084FEA3202B6EB0B
:1053E000020E75EB030E22BFB61A754640EADC00CA
:1053F00055EA060E18D04FEA051545EA16754FEA2C
:1054000006164FEAC30343EA52734FEAC2025FEA49
:105410001C1CC0D111F4801F0BD141EA00014FF0D8
:1054200000004FF0004CB6E711F4801F04BF0143A9
:105430000020B4F1FD0C88BFBCF5E06F3FF6AFAEC5
:10544000B5EB030C04BFB6EB020C5FEA500C50F155
:10545000000041EB045170BD0EF0004E4EEA1131D8
:1054600014EB5C04C2BFD4EB0C0541EA045170BDDF
:1054700041F480114FF0000E013C90E645EA060E23
:105480008DE60CEA135594EA0C0F08BF95EA0C0F51
:105490003FF43BAF94EA0C0F0AD150EA01347FF499
:1054A00034AF95EA0C0F7FF425AF104619462CE770
:1054B00095EA0C0F06D152EA03353FF4FDAE1046D3
:1054C000194622E750EA410618BF52EA43067FF424
:1054D000C5AE50EA41047FF40DAF52EA43057FF4B4
:1054E000EBAE12E74FF0FF3C06E000BF4FF0010CBF
:1054F00002E000BF4FF0010C4DF804CD4FEA410C23
:105500007FEA6C5C4FEA430C18BF7FEA6C5C1BD0EF
:1055100001B050EA410C0CBF52EA430C91EA030F70
:1055200002BF90EA020F0020704710F1000F91EACD
:10553000030F58BF994208BF90422CBFD8176FEA9B
:10554000E37040F0010070474FEA410C7FEA6C5C69
:1055500002D150EA013C07D14FEA430C7FEA6C5C70
:10556000D6D152EA033CD3D05DF8040B704700BF9C
:105570008446104662468C461946634600E000BFEA
:1055800001B5FFF7B7FF002848BF10F1000F01BDBC
:105590004DF808EDFFF7F4FF0CBF012000205DF887
:1055A00008FB00BF4DF808EDFFF7EAFF34BF01200C
:1055B00000205DF808FB00BF4DF808EDFFF7E0FFA5
:1055C00094BF012000205DF808FB00BF4DF808EDF6
:1055D000FFF7CEFF94BF012000205DF808FB00BF5D
:1055E0004DF808EDFFF7C4FF34BF012000205DF83F
:1055F00008FB00BF4FEA410212F5001215D211D587
:105600006FF47873B3EB625212D94FEAC12343F0BF
:10561000004343EA505311F0004F23FA02F018BF41
:10562000404270474FF00000704750EA013005D10A
:1056300011F0004008BF6FF0004070474FF00000CD
:10564000704700BF4A0011D212F5001211D20DD5D9
:105650006FF47873B3EB62520ED44FEAC12343F078
:10566000004343EA505323FA02F070474FF0000022
:10567000704750EA013002D14FF0FF3070474FF0D1
:10568000000070474FEA4102B2F1E04324BFB3F596
:10569000001CDCF1FE5C0DD901F0004C4FEAC002A9
:1056A0004CEA5070B2F1004F40EB830008BF20F08D
:1056B0000100704711F0804F21D113F13872BCBF47
:1056C00001F00040704741F480114FEA5252C2F19C
:1056D0001802C2F1200C10FA0CF320FA02F018BFE5
:1056E00040F001004FEAC1234FEAD32303FA0CFC38
:1056F00040EA0C0023FA02F34FEA4303CCE77FEAC7
:10570000625307D150EA01331EBF4FF0FE4040F410
:105710004000704701F0004040F0FE4040F40000BF
:10572000704700BF80F0004002E000BF81F0004100
:1057300042001FBF5FEA410392EA030F7FEA226C37
:105740007FEA236C6AD04FEA1262D2EB1363C1BFC7
:10575000D218414048404140B8BF5B42192B88BF36
:10576000704710F0004F40F4000020F07F4018BF59
:10577000404211F0004F41F4000121F07F4118BF79
:10578000494292EA030F3FD0A2F1010241FA03FC21
:1057900010EB0C00C3F1200301FA03F100F0004309
:1057A00002D5494260EB4000B0F5000F13D3B0F1D1
:1057B000807F06D340084FEA310102F10102FE2A40
:1057C00051D2B1F1004F40EBC25008BF20F00100B0
:1057D00040EA03007047490040EB000010F4000F5E
:1057E000A2F10102EDD1B0FA80FCACF1080CB2EBF1
:1057F0000C0200FA0CF0AABF00EBC2505242184350
:10580000BCBFD0401843704792F0000F81F40001F4
:1058100006BF80F400000132013BB5E74FEA4103C7
:105820007FEA226C18BF7FEA236C21D092EA030F33
:1058300004D092F0000F08BF0846704790EA010FAD
:105840001CBF0020704712F07F4F04D1400028BFDA
:1058500040F00040704712F100723CBF00F50000BC
:10586000704700F0004343F0FE4040F400007047F2
:105870007FEA226216BF08467FEA2363014642029E
:1058800006BF5FEA412390EA010F40F480007047B1
:105890004FF0000304E000BF10F0004348BF404257
:1058A0005FEA000C08BF704743F0964301464FF093
:1058B00000001CE050EA010208BF70474FF00003EF
:1058C0000AE000BF50EA010208BF704711F0004330
:1058D00002D5404261EB41015FEA010C02BF844600
:1058E0000146002043F0B64308BFA3F18053A3F55F
:1058F0000003BCFA8CF2083AA3EBC25310DB01FAA6
:1059000002FC634400FA02FCC2F12002BCF1004F29
:1059100020FA02F243EB020008BF20F001007047BA
:1059200002F1200201FA02FCC2F1200250EA4C000E
:1059300021FA02F243EB020008BF20EADC70704754
:105940004FF0FF0C1CEAD0521EBF1CEAD15392EA62
:105950000C0F93EA0C0F6FD01A4480EA010C40023E
:1059600018BF5FEA41211ED04FF0006343EA501098
:1059700043EA5111A0FB01310CF00040B1F5000FDA
:105980003EBF490041EAD3715B0040EA010062F189
:105990007F02FD2A1DD8B3F1004F40EBC25008BF73
:1059A00020F00100704790F0000F0CF0004C08BF91
:1059B00049024CEA502040EA51207F3AC2BFD2F15E
:1059C000FF0340EAC250704740F400004FF000036C
:1059D000013A5DDC12F1190FDCBF00F000407047A6
:1059E000C2F10002410021FA02F1C2F1200200FAE4
:1059F00002FC5FEA310040F1000053EA4C0308BFAB
:105A000020EADC70704792F0000F00F0004C02BFFB
:105A1000400010F4000F013AF9D040EA0C0093F076
:105A2000000F01F0004C02BF490011F4000F013BD0
:105A3000F9D041EA0C018FE70CEAD15392EA0C0F3E
:105A400018BF93EA0C0F0AD030F0004C18BF31F0A9
:105A5000004CD8D180EA010000F00040704790F07F
:105A6000000F17BF90F0004F084691F0000F91F023
:105A7000004F14D092EA0C0F01D142020FD193EAE9
:105A80000C0F03D14B0218BF084608D180EA010071
:105A900000F0004040F0FE4040F40000704740F04D
:105AA000FE4040F4400070474FF0FF0C1CEAD0521B
:105AB0001EBF1CEAD15392EA0C0F93EA0C0F69D077
:105AC000A2EB030280EA010C49024FEA402037D0E2
:105AD0004FF0805343EA111143EA10130CF00040D9
