:1000000000800020BD010000C90800009508000024
:10001000950800009508000095080000950800006C
:10002000950800009508000095080000C908000028
:10003000C908000095080000C908000085080000F4
:10004000C9080000C9080000C9080000C90800006C
:10005000C9080000C9080000C9080000C90800005C
:10006000C9080000C9080000C9080000C90800004C
:10007000C9080000C9080000C9080000C90800003C
:10008000C9080000C9080000C9080000C90800002C
:10009000C9080000C9080000C9080000C90800001C
:1000A00041500000C9080000C9080000C90800004C
:1000B000C9080000C9080000C9080000C9080000FC
:1000C000C9080000C9080000C9080000C9080000EC
:1000D000C9080000C9080000C9080000C9080000DC
:1000E000C9080000C9080000C9080000C9080000CC
:1000F000C908000031170000C9080000791B000082
:10010000C9080000991E0000C9080000C9080000C5
:10011000C9080000C9080000C9080000C90800009B
:10012000C9080000C9080000C9080000C90800008B
:10013000C9080000C9080000C9080000C90800007B
:10014000C9080000C9080000C9080000C90800006B
:10015000E1400000F9400000114100002941000089
:10016000C908000061210000C9080000C90800009A
:10017000C9080000C9080000C9080000C90800003B
:10018000C9080000C9080000C9080000C90800002B
:10019000C9080000C9080000C9080000C90800001B
:1001A000C9080000C9080000C9080000C90800000B
:1001B000C9080000C9080000893D00005F4B4CF2EF
:1001C000205210B51A804DF628121A8000BF00BFC9
:1001D00000F07DFB5A4B4FF010621A60594A9A604A
:1001E000594ADA60594B1A6812F4807204D158499E
:1001F0000A604FF4A8521A60564B1A7802F00802AF
:10020000D2B21AB11A7842F008021A70524B53480F
:10021000534C2A221A700023524A02E0195999506D
:10022000043399188142F9D34F4B504A002101E021
:1002300043F8041B9342FBD34D494E4800231A5800
:100240005A500433B3F5DE7FF9D14B4B4B4A802132
:1002500003F8011B9342FBD1454A494B1A60494BB5
:100260000A221A70484B24221A70A02203F8012C8B
:10027000464A137803F00203DBB2002BF9D0434A5D
:10028000137803F01003DBB2002BF9D13F4A137847
:1002900003F00C03082BFAD13D4B03221A704022C5
:1002A0005A703A4A137803F02003DBB2002BF9D0DE
:1002B000364A137803F04003DBB2002BF9D0354BFC
:1002C000354A1A6002225A60344B20221A702F4A93
:1002D000137803F00C030C2BFAD1314A314B1A601E
:1002E000314B324A1A60072243F8042C304AC3F8D3
:1002F0000C2D62B600F0E1FF154B1B68DC0705D53D
:100300002C4800F06DFD2C4A2C4B1A602C4B1B78AE
:1003100003F04003DBB24BB1284C274A23689342D9
:1003200004D1244800F05CFD0023236007F02EFC7C
:1003300000F0D4FA03F01AFAFEE700BF0E200540E1
:1003400030800440823F04000100002B10D00340A5
:1003500014D0034002D0074000E00740D093FF1FB5
:10036000000302006087FF1FD093FF1F70A8FF1FCC
:100370000082FF1F0000000000E400E05FE400E0F6
:1003800008ED00E0005006400140064006400640EF
:100390000440064044800440000003010040064041
:1003A000C01005000480044014E000E0FF76010066
:1003B0000000202000DD6850A5C3945A1CE00340D3
:1003C00000F00740FFFFFFFFFFFFFFFFFFFFFFFF02
:1003D000FFFFFFFFFFFFFFFFFFFFFFFFFFFFFFFF2D
:1003E000FFFFFFFFFFFFFFFFFFFFFFFFFFFFFFFF1D
:1003F000FFFFFFFFFFFFFFFFFFFFFFFFFFFFFFFF0D
:10040000FFFFFFFFFFFFFFFFFFFFFFFFFEFFFFFFFD
:1004100008B549F2D030074BC1F6FF701B1A062B06
:1004200000D808BD40F20003C0F20003002BF8D052
:100430009847F6E7D393FF1F08B549F2D03049F249
:10044000D033C1F6FF70C1F6FF731B1A9B1003EB8C
:10045000D373591000D108BD40F20002C0F200026F
:10046000002AF8D09047F6E710B549F2D034C1F62B
:10047000FF74237873B9FFF7CBFF40F20003C0F29B
:1004800000032BB140F20030C0F20200AFF3008055
:100490000123237010BD00BF08B540F20003C0F275
:1004A00000034BB140F2003049F2D431C0F20200F7
:1004B000C1F6FF71AFF3008049F2D030C1F6FF7092
:1004C00003682BB140F20003C0F2000303B1984768
:1004D000BDE80840FFF7B0BFF0B5304830490368C9
:1004E0001B06FCD40B6813F08002F8D172B62D4BBA
:1004F0001978002950D02C4908684F688E68CD685B
:100500000C6938181431801909684019001940180D
:10051000C0F34E00254940F400400860C86A0F6BE4
:100520004E6B8D6BCC6B38184031801909684019BF
:1005300000194018C0F34E001D4940F40040086007
:1005400001F10811143151F8140C51F8107C51F8D4
:100550000C6C51F8085C51F8044C09683818801983
:10056000401900194018C0F34E00124940F40040F1
:100570000860C86A0F6B4E6B8D6BCC6B38184031BE
:1005800080190968401900194018C0F34E000A4943
:1005900040F4004008601A7062B6F0BD24B0034019
:1005A00024B00B40EC93FF1F38B003402CB0034045
:1005B00030B003402CB00B4030B00B40224B6022D7
:1005C0001A70E1225A70214B214A1978214B0829CF
:1005D00001D1012102E00A2907D13921116013223A
:1005E0001A601D4B19605A600BE00C291A4901D1A1
:1005F000352000E03D20106012221A60174B086081
:100600001A60174B17495B78174A03B101230B6037
:1006100013600E4B154A5978154B012901D88021DA
:100620000CE0042901D8842108E0082901D885219B
:1006300004E0102901D8862100E0872111601960AB
:10064000074B01221A707047004007406487FF1F64
:1006500008B003400CB0034008B00B400CB00B4096
:10066000EC93FF1F20B0034020B00B4024B00340A8
:1006700024B00B400D4B5A7858B1AAB901215970DA
:100680001B7823B10A4B1A6003F500231A60FFF7A9
:1006900095BF4AB158701B78002BF8D0044B1860F6
:1006A00003F500231860F2E7704700BFEC93FF1FCB
:1006B00024B003400C2810B503D91023102807D804
:1006C00009E00A2806D8082894BF08230A2302E074
:1006D000184600E00C23DCB2084A0949201A907041
:1006E0000878834209D013780C7013B1054B0022AF
:1006F0001A60BDE81040FFF761BF10BDEC93FF1F0B
:100700006487FF1F24B0034010B5114B1B780446CB
:100710000BB1FFF7E1FE012C0E4A01D8002302E0E5
:10072000042C02D8042313600EE0082C03D8052300
:100730001360082308E0102C03D80623136010234D
:1007400002E0072313602023034A537010BD00BF4B
:10075000EC93FF1F24B003406487FF1F0D282DE991
:10076000F0410FD9172801D80E380AE0A0F11A037A
:10077000052B01D8093804E0A0F12203062B50D83C
:100780001838C0B2284B1C5C284B1B780BB1FFF704
:10079000A3FE72B6220617D4254D244E01272C60E5
:1007A000F77062B672B62B6813F0800F1F4B04D03F
:1007B000204A10680022DA7026E0F378002BEED091
:1007C00062B604F0B5FDEDE704F040071A4D174E90
:1007D000FFB204F03F044FF00108184B1A6817B13C
:1007E00022F0100201E042F010021A602C6086F83C
:1007F000048062B672B62B6813F0800F0B4B09D0E1
:100800000F4A106800221A7162B69B7840FA03F012
:10081000BDE8F0813379002BDFD062B604F088FDAB
:10082000E8E70020BDE8F081C0010100EC93FF1F64
:1008300000B0034010B0034000B00B400CB00B40C0
:1008400010B00B400B4B1A6842F480521A600A4BEE
:100850005A780A4B0AB1802200E0C0221A7040F692
:10086000FF739842A8BF1846054B20EAE070188035
:10087000704700BF2C800440EC93FF1F21C00C4048
:1008800000C00C40024B1A6801321A60704700BF6A
:100890007C94FF1F38B50B4C25462368580301D5BF
:1008A00001F05EFC2B68590501D500F041FF2B6873
:1008B0001A0501D501F060F92368DB04EDD501F0DC
:1008C000EBFAEAE73480044008B5FFF7E3FF024B98
:1008D00010221A80704700BF002005407047034A6D
:1008E0001368181810601846704700BF6887FF1F0C
:1008F000002070474FF0FF3070474FF400534B60BB
:1009000000207047012070474FF0FF307047FEE72E
:10091000FEE70078D0F1010038BF002070470123C6
:1009200003707047EFF313839BB9EFF3108098B90E
:10093000EFF3058323B10F2B04D9084A985C01E03B
:100940004FF48070EFF311833BB1984228BF1846F3
:1009500070474FF0FF30704718467047F0E300E0F3
:10096000002300E00133C25C002AFBD11846704727
:1009700010B50023B0FBF2F402FB1400092801D8E3
:10098000303000E03730C85420460CB10133F1E775
:10099000CA185470224605E0885CCC5C8C54C8545C
:1009A0000132013B9A42F7DB084610BD031E10B529
:1009B0000C4603DBBDE81040FFF7DABF2D2001F83D
:1009C000010B5842FFF7D4FF204610BD2DE9F0433C
:1009D00085B090461E46894606F09AF903AB00930F
:1009E000424602AB07F06AF80746B8F1000F0AD199
:1009F000029B43B90778304B304A0125342F8CBF16
:100A000017461F4609E03846FFF7AAFF029B9842A7
:100A10000546C8BF451C03B90135039901B101352D
:100A2000C5EB0902002A06EB050309DD9B183446D5
:100A3000B218202001E004F8010B9442FBD100E041
:100A4000344611B12D2204F8012B029ABAB9B8F13B
:100A5000000F14D0302222702E22627002340EE079
:100A6000224617F8011B02F8011B9A420BD002998B
:100A70000139029109B96070A21C144600E02E20D1
:100A80009C42EDD300E01C46B9F1000F0DDA4D4455
:100A90006D4223466119202001E003F8010BCA1AB8
:100AA000002AFADC002DA8BF641900232370304609
:100AB00005B0BDE8F08300BFD9010100D7010100F6
:100AC0001F4B10B51C68E0031C6004D51D4B1A6851
:100AD0000AB11B689847A10304D51A4B5A680AB19A
:100AE0005B689847E20704D5164B1A6C0AB11B6C79
:100AF0009847A30704D5134B5A6C0AB15B6C98470F
:100B0000200704D50F4B9A6C0AB19B6C984761077C
:100B100004D50C4BDA6C0AB1DB6C9847220304D580
:100B2000084B5A6E0AB15B6E9847630306D5054BB6
:100B3000D3F8802012B1D3F88030984710BD00BFA1
:100B4000A0A00440F493FF1F2C4B10B51C68200795
:100B50001C6004D52A4B5A6A0AB15B6A9847E106C1
:100B600004D5274B9A6A0AB19B6A9847620604D556
:100B7000234BDA6A0AB1DB6A9847230604D5204B77
:100B80001A6B0AB11B6B9847A00604D51C4B5A6B15
:100B90000AB15B6B9847E10704D5194BDA6B0AB1D0
:100BA000DB6B9847A20704D5154B9A6D0AB19B6D74
:100BB0009847630704D5124BDA6D0AB1DB6D98478D
:100BC000A00504D50E4BDA6E0AB1DB6E9847E1053D
:100BD00004D50B4B1A6F0AB11B6F9847620504D5F9
:100BE000074B5A6F0AB15B6F9847230504D5044B36
:100BF0009A6F0AB19B6F984710BD00BFA0B0044028
:100C0000F493FF1F1E4B10B51C68E0071C6004D551
:100C10001C4B9A680AB19B689847210604D5194B6A
:100C20005A690AB15B699847E20604D5154B9A697F
:100C30000AB19B699847630704D5124BDA690AB178
:100C4000DB699847200704D50E4B1A6A0AB11B6A64
:100C50009847A10704D50B4B9A6B0AB19B6B984739
:100C6000A20604D5074B1A6D0AB11B6D984763069F
:100C700004D5044B5A6D0AB15B6D984710BD00BF97
:100C8000A0C00440F493FF1F114B10B51C68E00492
:100C90001C6004D50F4BDA680AB1DB689847A104E1
:100CA00004D50C4B1A690AB11B699847A20604D5F2
:100CB000084B1A6E0AB11B6E9847E30606D5054B22
:100CC000D3F8842012B1D3F88430984710BD00BF08
:100CD000A0900440F493FF1F094B10B51C68A207B5
:100CE0001C6004D5074B9A6E0AB19B6E9847E307C8
:100CF00004D5044BDA6F0AB1DB6F984710BD00BF13
:100D0000A0D00440F493FF1F1030024B43F8201092
:100D1000704700BF0082FF1F212830B531D8042A58
:100D20002FD8DFE802F00709050B03000B2306E0CC
:100D30000A2304E0082302E00C2300E00923114AFF
:100D4000114D02EBC0025468104AC2F89C51104D7C
:100D5000C2F8A0510F4DC2F8A4510F4DC2F8A851CE
:100D60000E4DC2F8AC5172B622680D4D22F47022BD
:100D7000226042F0807242EA034345F8201023606B
:100D800062B630BDDC010100890C00000082FF1F4B
:100D9000C10A0000490B0000050C0000D90C00003E
:100DA000F493FF1F094B03EBC0035B6872B61A682C
:100DB00022F0877222F4803242F080721A60044B73
:100DC000002243F8202062B6704700BFDC0101001A
:100DD000F493FF1F014B1868704700BF00D0034019
:100DE000044B054900221A600A60044A1060102270
:100DF0001A60704714D0034004D0034000D0034071
:100E0000002810B50FDB02024FF4807347F6FF7421
:100E100000E00A46A24204D9013B012BC0EB0201CB
:100E2000F7D1120A11E0404202024FF4807348F2F7
:100E3000FF0400E00A46A24204D9013B012BC0EBAB
:100E40000201F7D1120AC2F58072013B024942EA5F
:100E500003220A6010BD00BF0CD0034018B1102857
:100E600028BF102000E00120014B1870704700BF20
:100E70006C87FF1F10B500234FF4377242FA03F45A
:100E8000A14202D80133072BF8D11B4A42FA03F2E0
:100E900002EB5102B2FBF1F101394FF6FF729142C0
:100EA00028BF1146C21E012A06D8144A144C00203D
:100EB0001060206013481AE0A0F11602012A05D93B
:100EC00015280AD8104C42B2944006D50F4A104C4F
:100ED0000020106020600F4809E0202801D0192868
:100EE00009D10D4A0D4C0020106020600C4843F0E1
:100EF00008030160136010BD006CDC020090034029
:100F00000490034008900340000C600600800340FA
:100F1000048003400880034000800B4004800B40A5
:100F200008800B40212810B518D80D4A52F83030EF
:100F300093F880423CB1012211B183F8802010BDAA
:100F400083F8002110BD02EBC00043681A6811B19C
:100F500042F0030201E022F002021A6010BD00BF5D
:100F6000DC010100212805D8034B53F8303093F8F9
:100F70000002704700207047DC010100212816D8CC
:100F80000B4A02EBC00301295B6852F8302004D100
:100F900082F880124FF4A27208E0002082F88002EA
:100FA00011B94FF4807201E040F203121A607047E9
:100FB000DC010100282838B50A4604464E4B0FD103
:100FC0001B780B2B03D8C3F10C039A4003E00C2BC6
:100FD00001D00C3B1A411046BDE83840FFF732BC47
:100FE00019780125002A05FA01F301DC002102E04D
:100FF0009A4205D32946FFF795FF2046294676E019
:10100000C31E012B01D83D4B06E0202801D0192832
:1010100001D13B4B00E03B4B1B680133534323FAA8
:1010200001F3E11E1D2959D8DFE801F03F453927BA
:1010300058581B215858585858585858582D330F3D
:101040001558515858585858584B2F4A136040F269
:1010500044422E4B40E02E4A136040F244422D4B56
:101060003AE02D4A136040F244422C4B34E02C4AC3
:10107000136040F244422B4B2EE02B4A136040F2A7
:1010800044422A4B28E02A4A136040F24442294B4A
:1010900022E0294A136040F24442284B1CE0284ACF
:1010A000136040F24442274B16E0274A13604FF486
:1010B0005172264B10E0264A13604FF45172254BB3
:1010C0000AE0254A13604FF45172244B04E0244A8D
:1010D0001360244B4FF451721A6038BD7F2A2046AA
:1010E000D4BF00210121FFF71DFF20460121BDE8EB
:1010F0003840FFF743BF00BF6C87FF1F08900340D5
:1011000008800B40088003401080034004B0044076
:101110001880034008B00440208003400CB0044015
:101120002880034010B004403080034010C00440C9
:101130003880034014C004404080034018C004407D
:10114000488003401CC0044010900340309004408D
:10115000189003403490044010800B4048A0044095
:1011600018800B404CA004402DE9F04107460E4684
:1011700090460824012505EA08013846FFF7D2FE0B
:1011800001213046FFF7CEFE002130466D00FFF70B
:10119000C9FE013CEDB2EED1BDE8F0812DE9F04190
:1011A00007460E4690460824802505EA0801384681
:1011B000FFF7B8FE01213046FFF7B4FE00213046AC
:1011C000FFF7B0FE6D08013CEFD1BDE8F08112B928
:1011D0001A46FFF7C9BF1A46FFF7E0BF2DE9F041F5
:1011E00080460F4608240025012638460121FFF7D6
:1011F00099FE4046FFF7B6FE00B135430021384660
:101200007600FFF78FFE013CF6B2EED12846BDE82E
:10121000F0812DE9F04180460F4608240025802604
:1012200038460121FFF77EFE4046FFF79BFE00B1E6
:10123000354300213846FFF775FE7608013CEFD1B3
:101240002846BDE8F0810AB9FFF7C8BFFFF7E1BF44
:1012500072B60C4B0C491A680C4BD3F888300968ED
:1012600062B6490102D5322A88BF0133C2F5BB32CA
:10127000FF326021B2FBF1F24FF47A7000FB0320E1
:10128000704700BF18E000E004ED00E0F493FF1F9A
:1012900070B50446FFF7DCFF05466CB140F2E73657
:1012A000FFF7D6FF401BB04203D9013C04D005F53F
:1012B0007A7504F03DF8F3E770BD1E4B4FF4000261
:1012C00010B51A604FF080721A604FF000721A6009
:1012D0004FF080621A604FF000621A60164B174A96
:1012E000174C00204BF6FF711860596028231360DB
:1012F0009360136193611362936213639363092292
:101300002260104C20606160A360236144F8042CCB
:101310000D4C20600D4801600D490B608B600D4B3A
:101320001A60FFF74BF90420FFF7B2FFBDE8104049
:1013300001F03CBA08E100E0048003400C80034067
:10134000008003400490034004800B4008800B4061
:101350000C800B4000800B4070B50E2405464C43BA
:1013600003E0013C01D1002070BD2B78002BF8D1A7
:1013700001E0013CF7D02B78002BFAD0FFF768FF93
:10138000064601E0013CEED02B78002BFAD1FFF7A6
:101390005FFF801B70BD70B50E2405464C4303E013
:1013A000013C01D1002070BD2B78002BF8D001E06A
:1013B000013CF7D02B78002BFAD1FFF749FF064606
:1013C00001E0013CEED02B78002BFAD0FFF740FF74
:1013D000801B70BD21280BD8064B53F8300000F558
:1013E000007011B11146FFF7B7BF1146FFF7D3BF29
:1013F00000207047DC010100174B1A6842F480623C
:101400001A60164B00221A705A709A70DA701A71AC
:10141000134B40F213321A604FF451725A60114B61
:10142000C0F344321A70C0F347125A7002210422EA
:1014300000F01F0098729A70D9745A7588221A7435
:101440003C22DA70084B40226FF44A711A705B1824
:101450004FF400521A607047348004408094FF1F9C
:1014600040A0044000A006402DE400E0134A937819
:1014700000F0030103F0EC030B43410748BF43F0C6
:101480001003937000F00F03042B0C4903D18B79E8
:1014900043F040038B715379C20603F0EF03074A10
:1014A00048BF43F0100353719379800603F0EF03B4
:1014B00048BF43F010039371704700BF00A006407F
:1014C0000D4B1B68580510B503D410BD03F030FF59
:1014D00000E00A4C2379094A002BF7D108494FF460
:1014E0000050086007490848CB7040F203110160C2
:1014F00041601370537010BD348004408094FF1F0E
:1015000084E100E000A0064040A0044038B5094B4B
:1015100004461D79002DFCD120460121FFF72EFD48
:1015200020462946FFF7FEFC034B53F83420014BBD
:101530009A6038BD8094FF1FDC010100F8B51A4B9A
:101540001B685A0507462DD5184A93680BB101212F
:1015500019709478154D164E01343F2C88BF002425
:1015600014E0FFF7DFF940280CDC33791B060DD5BA
:10157000EB7801333F2B88BF0023EA18127BF2710E
:10158000EB7003E0FF2801DD03F0D2FEEA78074BA1
:10159000A242E6D01A19177301221A719C70044BEB
:1015A000BC22DA70F8BD00BF348004408094FF1F75
:1015B00000A0064000F00F00092801D8303000E0FC
:1015C0003730FFF7BBBF2DE9F84F254B1B680746A7
:1015D00058058A4641D5234B9B680BB101221A70EE
:1015E000204C3E46A34631E0A5789BF803800135A8
:1015F0003F2D88BF0025A84507D0631916F8012B99
:101600001A7301232371A57020E0174BBC22DA70F6
:101610009946FFF787F9402810DC99F8043019063D
:1016200010D5E37801333F2B88BF00230BEB030277
:10163000127B89F807208BF8033003E0FF2801DDD7
:1016400003F076FEE3784345E3D0D6E707EB0A03E1
:101650009E42C9D3044BBC22DA70BDE8F88F00BFAC
:10166000348004408094FF1F00A0064010B5044C55
:1016700001E003F05DFE2379002BFAD110BD00BF1D
:101680008094FF1F044A9378D078834201D33F307F
:1016900000E00138C01A70478094FF1F034A107899
:1016A0005378984238BF4030C01A70478094FF1F6B
:1016B000084A11785378994208D001333F2B88BFEC
:1016C0000023D11891F84C00537070474FF0FF3051
:1016D000704700BF8094FF1F074A117853789942E2
:1016E00007D001333F2B88BF0023D31893F84C0059
:1016F00070474FF0FF3070478094FF1F094B1B6805
:101700005B050DD5084BDA7802F0CB02DA70402287
:101710005A74DA7842F03402DA70044B5A781A704C
:10172000704700BF3480044000A006408094FF1F33
:1017300070B52C4B1A7912F0300F1DD072B6997D0E
:1017400021B9DA7940225A7462B615E062B62648A9
:10175000027844781D46531C3F2B88BF0023A342C8
:10176000EE7903D0C21882F84C601A46013911F0A4
:10177000FF01F0D11C4B1A701A4AD37818465BB29D
:10178000002B1ADA1379190617D517498D78CB78FB
:10179000AB420AD001333F2B88BF00231479CC1809
:1017A000247BD471147D072CF2D90F4AD3700D4BD2
:1017B0001A79120601D57C22DA7000F04003DBB200
:1017C00073B1084B1A7902F04002D2B219463AB10D
:1017D000054B00221A719B6803B11A703C23CB7031
:1017E00070BD00BF00A006408094FF1F38B5451EA5
:1017F00007E00A2C02D10D20FFF7A0FE2046FFF7DC
:101800009DFE15F8014F002CF3D138BD10B50446EC
:101810000009FFF7CFFE2046BDE81040FFF7CABE23
:1018200010B50446000AFFF7F1FF2046BDE810405E
:10183000FFF7ECBF10B50446000EFFF7E7FF200CE2
:10184000FFF7E4FF200AFFF7E1FF2046BDE8104064
:10185000FFF7DCBF164B1A6842F400621A60154BA2
:1018600000221A705A709A70DA701A71124B40F294
:1018700013321A604FF451725A60104BC0F3443265
:101880001A70C0F347125A7000F01F0004220221A0
:1018900098729A70D9745A7588221A743C22DA7038
:1018A000074B40221A70074B4FF400421A607047F2
:1018B000348004400C95FF1F0CB0044000B006407B
:1018C0002FE400E004E100E0134A937800F0030104
:1018D00003F0EC030B43410748BF43F01003937040
:1018E00000F00F03042B0C4903D18B7943F0400324
:1018F0008B715379C20603F0EF03074A48BF43F0E8
:10190000100353719379810603F0EF0348BF43F04E
:1019100010039371704700BF00B006400D4B1B6869
:10192000180510B503D410BD03F002FD00E00A4C09
:101930002379094A002BF7D108494FF40040086089
:1019400007490848CB7040F20311016041601370F1
:10195000537010BD348004400C95FF1F84E100E0FB
:1019600000B006400CB0044038B5094B04461D7960
:10197000002DFCD120460121FFF700FB204629461F
:10198000FFF7D0FA034B53F83420014B9A6038BD6F
:101990000C95FF1FDC010100F8B51A4B1B681A05F6
:1019A00007462DD5184A93680BB101211970947818
:1019B000154D164E0134272C88BF002414E0FEF785
:1019C000B1FF40280CDC33791B060DD5EB780133D1
:1019D000272B88BF0023EA18127BF271EB7003E01B
:1019E000FF2801DD03F0A4FCEA78074BA242E6D011
:1019F0001A19177301221A719C70044BBC22DA70F9
:101A0000F8BD00BF348004400C95FF1F00B00640B5
:101A10002DE9F84F244B1B68074618058A4641D527
:101A2000224B9B680BB101221A70204C3E46A34604
:101A300031E0A5789BF803800135272D88BF00256C
:101A4000A84507D0631916F8012B1A7301232371D7
:101A5000A57020E0164BBC22DA709946FEF762FFB3
:101A6000402810DC99F80430190610D5E3780133CA
:101A7000272B88BF00230BEB0302127B89F807207A
:101A80008BF8033003E0FF2801DD03F051FCE3781D
:101A90004345E3D0D6E707EB0A039E42C9D3044B84
:101AA000BC22DA70BDE8F88F348004400C95FF1F2B
:101AB00000B0064010B5044C01E003F039FC237976
:101AC000002BFAD110BD00BF0C95FF1F044A93787C
:101AD000D078834201D3273000E00138C01A704724
:101AE0000C95FF1F034A10785378984238BF403056
:101AF000C01A70470C95FF1F084A11785378994215
:101B000008D001333F2B88BF0023D11891F834004F
:101B1000537070474FF0FF30704700BF0C95FF1FA8
:101B2000074A11785378994207D001333F2B88BF79
:101B30000023D31893F8340070474FF0FF307047FC
:101B40000C95FF1F094B1B681B050DD5084BDA7858
:101B500002F0CB02DA7040225A74DA7842F0340292
:101B6000DA70044B5A781A70704700BF3480044012
:101B700000B006400C95FF1F70B52C4B1A7912F07F
:101B8000300F1DD072B6997D21B9DA7940225A748E
:101B900062B615E062B62648027844781D46531CAA
:101BA0003F2B88BF0023A342EE7903D0C21882F8EE
:101BB00034601A46013911F0FF01F0D11C4B1A7044
:101BC0001A4AD37818465BB2002B1ADA1379190631
:101BD00017D517498D78CB78AB420AD00133272B24
:101BE00088BF00231479CC18247BD471147D072C72
:101BF000F2D90F4AD3700D4B1A79120601D57C2207
:101C0000DA7000F04003DBB273B1084B1A7902F0CE
:101C10004002D2B219463AB1054B00221A719B68B4
:101C200003B11A703C23CB7070BD00BF00B00640FA
:101C30000C95FF1F154B1A6842F480521A60144A23
:101C40000023137053709370D3701371114A40F2D4
:101C5000133111604FF4517151600F4AC0F3443198
:101C60001170C0F3471100F01F0051709072937013
:101C700013742C23D370094B40226FF44B711A70EC
:101C80005B184FF400321A60704700BF3480044084
:101C90008095FF1F08C0044000C0064031E400E00A
:101CA000134A937800F0030103F0EC030B43410760
:101CB00048BF43F01003937000F00F03042B0C494E
:101CC00003D18B7943F040038B715379C20603F043
:101CD000EF03074A48BF43F010035371937980061E
:101CE00003F0EF0348BF43F010039371704700BF48
:101CF00000C006400D4B1B68D80410B503D410BDBE
:101D000003F016FB00E00A4C2379094A002BF7D1B7
:101D100008494FF40030086007490848CB7040F28A
:101D20000311016041601370537010BD3480044092
:101D30008095FF1F84E100E000C0064008C0044019
:101D400038B5094B04461D79002DFCD120460121F0
:101D5000FFF714F920462946FFF7E4F8034B53F840
:101D60003420014B9A6038BD8095FF1FDC010100D3
:101D7000F8B51A4B1B68DA0407462DD5184A936844
:101D80000BB1012119709478154D164E0134272C92
:101D900088BF002414E0FEF7C5FD40280CDC337931
:101DA0001B060DD5EB780133272B88BF0023EA18DB
:101DB000127BF271EB7003E0FF2801DD03F0B8FA4B
:101DC000EA78074BA242E6D01A19177301221A715A
:101DD0009C70044BAC22DA70F8BD00BF3480044024
:101DE0008095FF1F00C0064038B54518044603E043
:101DF00014F8010BFFF7BCFFAC42F9D138BD10B5A8
:101E0000034C01E003F094FA2379002BFAD110BDC2
:101E10008095FF1F044A9378D078834201D32730FE
:101E200000E00138C01A70478095FF1F034A107800
:101E30005378984238BF4030C01A70478095FF1FD2
:101E4000084A11785378994208D001333F2B88BF54
:101E50000023D11891F83400537070474FF0FF30D1
:101E6000704700BF8095FF1F074A11785378994249
:101E700007D001333F2B88BF0023D31893F83400D9
:101E800070474FF0FF3070478095FF1F014B5A7825
:101E90001A7070478095FF1F10B5204B1A7902F019
:101EA0002002D2B26AB11E4AD87913785178013330
:101EB0003F2B88BF00238B4203D0D11881F8340018
:101EC00013701649CB7818465BB2002B12DA0B79E7
:101ED0001B060FD5124A9478D3789C4202D16C230A
:101EE000CB7007E00133272B88BF0023D418247B55
:101EF000CC71D37000F04003DBB273B1074B1A7999
:101F000002F04002D2B219463AB1054B00221A71D2
:101F10009B6803B11A702C23CB7010BD00C0064023
:101F20008095FF1F1FB572B6154B70221A70154AA7
:101F3000412111700F2102F8011C80221A701A78B9
:101F40001206FCD5104B186862B6104B984201D8A7
:101F50000A23584301A90A22FEF70AFD0C48002370
:101F600001AA9A5C2AB100EB430101330A2B4A8093
:101F7000F6D10133064A5B00137005B000BD00BF07
:101F80000000024007000240080002407F969800CF
:101F90006E87FF1F70B50C4B0C4C1A7842F002058F
:101FA00004EBC50682F00102706058781A700028B0
:101FB0000CBF8826C82646EA014180F0010044F89B
:101FC0003510587070BD00BFF495FF1F0080FF1FD3
:101FD000431E032B10B510D872B6094A02EB8302D8
:101FE000506840B141685160064A018832F8134098
:101FF000611A22F8131062B610BD002010BD00BF98
:10200000F495FF1F5CA7FF1F013803280DD8084B6C
:1020100003EB8000436972B6002002E01A885B6817
:102020008018002BFAD162B670470020704700BFBD
:10203000F495FF1F013803280CD872B6064B03EB4A
:1020400080004369002001E05B680130002BFBD178
:1020500062B6704700207047F495FF1F70B572B6E6
:102060001A4E1B4C01239A1912F8012C02F0080297
:10207000D2B2F2B19900164A54F831502DB902EBA0
:10208000431308305860134B09E041F0010154F844
:10209000315075B902EBC103083058600E4B42F85D
:1020A00031300E4B93F82420013A83F8242062B695
:1020B00070BD0133052BD6D162B6084B002283F8E0
:1020C0002420BDE8704000F0CFBB00BFEC0201004F
:1020D0000080FF1F88004000C8004000F495FF1FEB
:1020E000421E032A30B533D840011A4B40F010008D
:1020F000181872B6184CA31893F82530032B09D87A
:10210000DFE803F0130215050830022310E0083061
:1021100004230DE09200A318586908B9596101E041
:10212000DB6A5960A218D16211E0032300E00523A5
:10213000A21810F0080F82F8253001F108030A8870
:1021400043600CBF8823C82343EA0243036062B69E
:1021500030BD00BF0080FF1FF495FF1F00BE704719
:102160002DE9F74FAB4EAC4C357805F00403DBB2EC
:10217000BBB1AA4B93F844208AB193F845202AB109
:10218000013AD2B283F8452002B900BEA44A1378BE
:102190002BB1013BDBB213700BB900F0E1FC04235F
:1021A000337005F00802D2B2002A00F0AF829D4BD6
:1021B0001B781D094FEA930940F0058204EBC9031F
:1021C000596854F83930C3F38303013B0C2B00F2F8
:1021D000F681DFE813F0AB01AB01F401F401F40187
:1021E000F401F401F401C901F401F401F4010D005A
:1021F0004B688A480A68C3648B4B826440F28165ED
:1022000092B244F8393001210023AA4203652361C8
:10221000A361417017D8B2F5D06F80F02C81B2F570
:10222000817F00F0E58006D8802A00F0C580822AF0
:1022300040F04081C5E040F202339A4200F00A814A
:10224000B2F5A06F16E042F22105AA4200F06B81C0
:1022500008D8B2F5086F00F0A880B2F5106F40F012
:1022600029810AE042F221218A4200F01E8142F2D5
:1022700021339A4240F01E8120E190F84A30664DA9
:1022800080F844302B6A180603D5686A083800F0D5
:10229000EBFA664908358D42F4D1DFF8B0B100257C
:1022A000A846D9460BF1500A55F80B0005E04368E3
:1022B000009300F0D9FA009B18460028F7D15C4B38
:1022C00049F8050045F80A00E85807E0426800931D
:1022D000019200F0C9FA019A009B10460028F5D13E
:1022E0005851544BE850544B23F81800534B18F8EE
:1022F0000320023A032A08D8DFE802F002040204AD
:10230000002200E0012203F8082008F1010804354A
:10231000B8F1040FC8D1414BDFF83491002283F8A3
:10232000242001259846464B05EB0902EB1812F8CC
:10233000012C9B001A7002F00802D2B23AB300F0EE
:1023400075FAAB0038B104EB4512083050603D4AD5
:1023500044F8332006E044F8330098F82430013381
:1023600088F8243000F062FAAB0043F0010338B182
:1023700004EBC302083050602B4A44F8332006E0D7
:1023800044F8330098F82430013388F82430AA0048
:1023900042F00201013542F003020023052D44F80A
:1023A000313044F83230BED189E090F844300546EF
:1023B00005F83C3F0B4687E080F83C3080F83D3024
:1023C0007FE0B0F84C20042A00D973E080F83C305C
:1023D00080F83D301C4B9200D3181B7803F00203A9
:1023E000DBB2002B6DD00546022305F83C1F6BE0E5
:1023F000B0F84C2002F07F03042B5BDCB0F84A30CD
:1024000003B157E09100104A8A18117821F00201B7
:102410004EE000BF802007400080FF1FF495FF1FA3
:10242000E996FF1F90200740C80040008080FF1FF2
:102430000896FF1F2096FF1F5CA7FF1F1996FF1F1E
:1024400030C8011088004000C0200740F895FF1FE9
:10245000EC020100B0F84C2002F07F03042B29DCD1
:10246000B0F84A3003B125E091009E4A8A181178ED
:1024700041F002011CE0B0F84A20B0F84C109A4B31
:1024800053F8085CA3F10C00A5B133F80CCC9445CB
:1024900009D133F80ACC8C4505D1120A032A0CBFA6
:1024A0002B78038910E00C33EAE790F84A108F4A42
:1024B000117004E08B4B0F221A7034E000231D468C
:1024C00002E0022300F13C05894AB2F84E904B45E8
:1024D00038BF9946B9F1400F34BFC8464FF04008A5
:1024E00028464146FFF756FDB9EB0809454403D19C
:1024F000B8F1400F07D016E0B9F1400F34BFC8461D
:102500004FF0400800E0C84628464146FFF742FD2C
:10251000B9EB0809454402D1B8F1400F03D1744A20
:102520001565A2F864900122724B47E0704BB3F836
:10253000482042F221039A4212D16F4A0023C85C1C
:1025400098540133072BFAD16B4B1B68862B03D1B0
:10255000674B0F2283F8452000200146FFF71AFD44
:10256000664B44F839302AE0DFF88491D9F850807E
:10257000B8F1000F16D0B9F864A0BAF1400F34BF1B
:102580005546402540462946FFF704FDC5EB0A03A2
:102590009BB2A9F864300BB9402D01D108EB0503BB
:1025A000534A1365524BB3F84820B2F5A06F06D1D9
:1025B000002283F8492093F84A20514B1A704D4B62
:1025C00001221A708AE004EBC90803F00803D8F866
:1025D0000420013DD9B2A2F10800EDB2002945D096
:1025E00000F042F9424B03EB8500416921B34A6890
:1025F000426101F10802C8F804205A1992F8252016
:10260000032A10D8DFE802F00205080B5D19032346
:1026100007E05D19022304E05D19052301E05D195F
:10262000042385F8253018F0080F0A880CBF88238A
:10263000C82343EA02434FE05A1992F82520032A9F
:102640000BD8DFE802F04B4B02055D19002301E0D7
:102650005D19012385F8253040E018F0080F1D446E
:102660000CBF0222032285F8252037E054F83930C8
:102670001B0C22F8083C4BB322F8061C42F8041C41
:102680001B4A4FEA850E02EB0E0194464A680AB9CE
:10269000486001E04A6D50600CEB0E02DFF850A07C
:1026A0005065184A32F815105B1822F8153000F002
:1026B000BDF818B10830C8F8040007E09AF82430D3
:1026C00044F8390001338AF8243007E00B4B0E4AF6
:1026D00018F0080F08BF134644F839300823337048
:1026E00042E500BFC0200740FC020100EA96FF1F40
:1026F000F495FF1F9420074064A7FF1FC800400007
:10270000982007405CA7FF1F88004000E90720D5FC
:102710001D4C1E481E4D21460223037001F8682BF4
:102720001C4BA8341D6059601A619A619D60DC6081
:10273000194B0D2119701949FF230B7001F8083C42
:102740000A74174A1370174B9F221A7001230370E3
:1027500018E02B0605D5104B0D221A70802203F8C5
:10276000402C05F00203DBB22BB10C4B1A781A7027
:10277000022203F8082C05F01005EDB215B10A4B42
:1027800010221A70BDE8FE8FF495FF1F94200740B9
:10279000880040000080FF1FC020074088200740BD
:1027A0008C200740842007408020074010B5FFF7A9
:1027B000B9FB0023174819461950C4180833882B51
:1027C000144A6160F8D1144B196841F480211960F2
:1027D000124BC2F307211970C2F30741120E19758B
:1027E0001A760F4AFF2313700021137202F8703C0F
:1027F0000123137582F8801013710A4B70226FF455
:10280000507C1A7063444FF400721A60064B102219
:102810001A7010BD0080FF1F348004409C200740C8
:102820008020074049E400E00821074072B60C4AC6
:102830001168B1FA81F30B2B02D962B60020704700
:102840004FF0004020FA03F021EA0001116062B667
:10285000044948225343C8180022CA5042607047B6
:102860000C88FF1F0084FF1F0C4B4822C31AB3FBC8
:10287000F2F30B2B11D80A4A127822B1094A1278C6
:102880000AB1FFF7EBBB72B6074A4FF0004121FADD
:1028900003F311681943116062B670470084FF1F8B
:1028A0001896FF1F3896FF1F0C88FF1F38B5114C74
:1028B00023684BB10F4D28684288811801320C7A89
:1028C00001888A4212D30CE00B4B1B7813B94FF0EE
:1028D000FF340CE00320FFF77BFB20600028E9D1E8
:1028E000F5E7FFF7C1FF00232B6000E042802046A0
:1028F00038BD00BFDC96FF1F3896FF1F10B50C4C8B
:1029000023681BB10A4B1B686BB902E0094B1B78AB
:1029100013B94FF0FF3010BD0320FFF759FB2060C3
:102920000028EFD1F5E75A889B18187A10BD00BF30
:10293000DC96FF1F3896FF1F044B9888044B1B68DA
:102940001BB11A885B88D31AC01870475CA7FF1F99
:10295000DC96FF1F2DE9F0470E4681464FF0000838
:10296000DFF868A0184F2AE09AF800304BB33B68B4
:102970004BB90320FFF72CFB386010B3038813B961
:10298000FFF772FFF5E73C68618825886D1AAE4253
:1029900038BF3546083148462A46611805F008FC1C
:1029A0006388A944A844761BED182388ADB2AB42D6
:1029B000658004D82046FFF757FF00233B60002EB8
:1029C000D2D14046BDE8F087DC96FF1F3896FF1F46
:1029D00010B5094B1B786BB1084C206818B1FFF794
:1029E00043FF002323600320FFF7F2FA10B1FFF743
:1029F0003BFFF8E710BD00BF3896FF1FDC96FF1FB6
:102A00002DE9F8432B4CDFF8B08001230D462371EC
:102A1000064647E0A3681BBB4AF2F9274FF00109BD
:102A200098F8003013B9234A137112E00420FFF71D
:102A300001FB072806D884F80490FFF7F7FEA06092
:102A400070B92071013F01D0237B33B1194B0122B2
:102A50001A734FF0FF30BDE8F88302F069FCDFE73E
:102A6000A1684888C0F14002954238BF2A4600F16B
:102A70000807002380182373CF194880AD1A02E09D
:102A8000F05CF85401339342FAD1F6184B883F2B8F
:102A900006D940230B800420FFF722FB0023A3600C
:102AA00005236373002DB5D1024B28461D71BDE887
:102AB000F88300BFDC96FF1F3896FF1F07B502ABF7
:102AC000012103F8010D1846FFF79AFF0EBD0F4BC9
:102AD000012210B51A719A681C467AB90C4B1B7802
:102AE00013B90020207110BD0420FFF7A3FA0728B6
:102AF000F7D8FFF79BFEA0600028F2D0034B9A683E
:102B000050880022C0F140001A7110BDDC96FF1FF2
:102B10003896FF1F70B5104B1B78DBB10F4CA568C2
:102B2000012626714DB16B880026667304202B8028
:102B30002946FFF7D5FAA66009E0FFF777FE0146C0
:102B400020B104206573FFF7CBFA00E06673034BF6
:102B500000221A7170BD00BF3896FF1FDC96FF1F60
:102B600038B50C4C25799DB9A16831B14B8804204A
:102B70000B80FFF7B5FAA56038BDFFF757FE014699
:102B800020B10420BDE83840FFF7AABA01236373DF
:102B900038BD00BFDC96FF1FF8B505460E4607247A
:102BA000012700216878FEF7BDF907FA04F13140EA
:102BB00018BF01212878FEF7B5F901216878FEF7E2
:102BC000B1F914F1FF34ECD2F8BDF8B504460E4665
:102BD0008078002117460025FEF7A4F909E0204679
:102BE0003146FFF7D9FF20463946FFF7D5FF0135BB
:102BF000EDB2237AAB42F2D8A0780121FEF792F928
:102C0000A0780021BDE8F840FEF78CB9F8B543681C
:102C100004460E46002B24D0072922D880780021B4
:102C2000C6F10807FEF77EF90025FFB20CE020464A
:102C30003946FFF7B1FF63689B19204613F835103A
:102C4000FFF7AAFF0135EDB2237AAB42EFD8A078A7
:102C50000121FEF767F9A0780021BDE8F840FEF7F2
:102C600061B9F8BD01F007020B21FFF7AEBF01F01B
:102C70000F020A21FFF7A9BF10B54468C4B1407A1A
:102C8000884215D9072A13D801F0F80011F007017E
:102C900008BF08210139C9B21218012000FA01F158
:102CA00013B1A35C194302E0A35C23EA0101A15420
:102CB00010BD38B505461446FFF7DEFF284621460D
:102CC000BDE83840FFF7A2BF82B02DE9F84F0AAC4B
:102CD00081468A46904644F8043F15461DE0314639
:102CE0003A46204600F0E2F806EB0A0B5FFA8BFB4F
:102CF0000346594648462A460136FFF7BDFFF6B25D
:102D000000E00026204600F081F88642E7D32946FD
:102D10004846FFF77BFF0135EDB2204600F078F81A
:102D2000C8EB0507FFB28742EBD3BDE8F84F02B00E
:102D3000704738B5436805466BB938BD6968C9182E
:102D400001F832000132D2B2297A9142F6D8013329
:102D5000082B02D103E0002318460022F4E70024E8
:102D6000214601342846E4B2FFF750FF082CF7D182
:102D700038BD38B504468370427001701046012199
:102D80009DF81050FEF7FAF820780121FEF7F6F8CA
:102D9000A0780121FEF7F2F840212572284604F0C0
:102DA00049FEED00606065722046FFF7C2FF2046D5
:102DB0000721FFF757FF20460F21FFF758FF204656
:102DC0000C210122FFF701FF204609210022FFF715
:102DD000FCFE20460F210022FFF7F7FE204638BDFB
:102DE00010B5082928BF082104460170082A34BFFD
:102DF000104608206070012104F01CFEA06010BD88
:102E000010B50446FFF7ECFF204610BD0078704770
:102E10004078704730B584688CB105788D420ED902
:102E2000407890420BD9012003F0010303FA01F32B
:102E300000FA01F1A05C20EA01011943A15430BD60
:102E400008B42DE9F34F0646884691469DF82C704C
:102E5000FFF7C6FFB36823B30CAB0193002508F15D
:102E6000FF3B00245FFA85FA444508DA082C0BD1B1
:102E700005E0019B1A1D01921F780135F1E709F168
:102E8000FF339D42F5D10CE0C4EB0B0347FA03F38B
:102E9000E1B23046524603F00103FFF7BBFF0134B5
:102EA000E2E73046BDE8FC4F01B07047836810B5DB
:102EB0005BB104788C420AD94078904207D9985C7B
:102EC00040FA01F000F0010010BD184610BD0020CE
:102ED00010BDFFFF38B50D4C0E202568FDF73EFCF8
:102EE00004F056FB236804EB850504EB83020233F0
:102EF0000021B3F5007F68602360916004DB044823
:102F0000BDE8384001F0B0B938BD00BFEC96FF1FF6
:102F1000F09EFF1F38B5094C0F20B4F81858FEF783
:102F200021F86FEA055360EAD34080B2B0F57043F0
:102F3000A4F818085842584138BD00BFEC96FF1F4E
:102F400073B5234D234E05F1100494E803008DE87A
:102F500003000021D6F8283828460A46FFF7B4FEB9
:102F600094E80300D6F828388DE8030000222846AC
:102F70000821FFF7A9FE94E80300D6F828388DE869
:102F80000300002228461021FFF79EFE94E803006C
:102F9000D6F828388DE80300002228461821FFF7CC
:102FA00093FE94E80300D6F828388DE80300002249
:102FB00028462021FFF788FE94E80300D6F8283839
:102FC0008DE80300002228462821FFF77DFE7CBD06
:102FD000089FFF1FEC96FF1FFFF7B2BF2DE9F843D4
:102FE000089C1D4600232B608946904623600746B7
:102FF00001264E4507DB464505DC2868796804F064
:1030000013FA286004E02068796804F00DFA206063
:1030100001360437802EECD1C9EB0800013004F0F2
:10302000B7FA0146286804F0BBFB2860C8EB09002A
:10303000803004F0ADFA0146206804F0B1FB206056
:10304000BDE8F883084B10B50446186804F0A0FAF0
:103050004FF06E5104F0F0FA0146204604F0A0FB58
:1030600004F0B0FC10BD00BF1088FF1F164B70B5F8
:103070001868164E03F03AFE0022154B03F09CFE32
:103080000022144B03F0C2FF04F078F90024054637
:10309000204604F07DFA294604F0CEFA46F82400D2
:1030A0000134312CF4D10C4D0024204604F070FA88
:1030B0000A4904F075FB0A4904F0BEFA45F82400F9
:1030C0000134302CF1D170BD1088FF1F209FFF1FED
:1030D0000000E03F00004840E49FFF1F00003C422A
:1030E0000000B4432DE9FF47FFF72AFF304D4FF0B2
:1030F0007E5605F1C00A002755F8040FDFF8C4908A
:10310000FFF7A0FF04466868FFF79CFF03AB024689
:1031100021460093274802ABFFF760FF029803F0B7
:10312000F7FD03F09FF80022234BD9F8048003F049
:1031300043FE04F023F9414604F074F900210446EB
:1031400004F018FC00B100244146D9F8080004F04E
:1031500069F90146204604F023FB4FF07E510446F6
:1031600004F026FC08B14FF07E5420463946029404
:1031700004F01EFC00B127462046314604F0FAFB5D
:1031800000B126465545B7D13146384604F04AF9D4
:103190004FF07C5104F050FA084904F04DFA04F065
:1031A00011FCC1B20648FFF762FDBDE8FF8700BF12
:1031B0001C9FFF1FA4A0FF1F0000344000007041AF
:1031C000089FFF1F1088FF1F2DE9FF412A4E002492
:1031D00056F8040FDFF8B480FFF734FF0546706837
:1031E000FFF730FF03AB024629460093234802ABAA
:1031F000FFF7F4FE029803F08BFD03F033F8002292
:103200001F4BD8F8047003F0D7FD04F0B7F8394627
:1032100004F008F90021054604F0ACFB00B10025DC
:103220003946D8F8080004F0FDF80146284604F0B5
:10323000B7FA4FF07E51054604F0BAFB08B14FF0E3
:103240007E5510480295E7B2FFF773FD002506E0B2
:10325000EAB20C4839460123FFF72BFD01350A4934
:10326000029804F0E9F904F0ADFB8542F0DB01348B
:10327000302CADD1BDE8FF811C9FFF1FA4A0FF1F14
:1032800000003440089FFF1F0000E0401088FF1F2F
:103290000A4B00221A600A4B0A4A1B6892FBF3F39E
:1032A000002B0ADB084A591E914206D830225A43A5
:1032B00006480749013A00F0E0BF7047EC96FF1F4F
:1032C0001088FF1F40420F0054555505F09EFF1F08
:1032D000D52E0000034B1868B0F5007FB4BF002066
:1032E00001207047EC96FF1F10B5144C2046FFF7E5
:1032F00020FD20460F21FFF7BAFC00210E20FDF72C
:103300003DFE0A20FDF7D6F91020FDF7FDF90F204C
:103310000221FDF733FE0D200121FDF72FFE0D20C8
:103320000121FDF7FFFD00214122054805F060F86D
:10333000FFF79CFEBDE81040FFF7AABF089FFF1FE4
:10334000A4A4FF1F37B51B4C1B4D04F5606393E825
:1033500003008DE803000021D4F8FC3D28460A460E
:10336000FFF7B2FC05F5BE6393E8030000228DE889
:103370000300D4F8083E28460921FFF7A5FC0F4BAF
:1033800093E8030000228DE80300D4F8143E284699
:103390001121FFF799FC05F5C16393E803000022B2
:1033A0008DE80300D4F8203E28461921FFF78CFC55
:1033B0003EBD00BFEC96FF1F089FFF1F04A5FF1F27
:1033C00037B51B4C1B4D04F5636393E803008DE890
:1033D00003000021D4F82C3E28460A46FFF774FC6F
:1033E00005F5C46393E8030000228DE80300D4F8D8
:1033F000383E28460921FFF767FC0F4B93E803008E
:1034000000228DE80300D4F8443E28461021FFF73F
:103410005BFC05F5C76393E8030000228DE8030019
:10342000D4F8503E28461821FFF74EFC3EBD00BFA1
:10343000EC96FF1F089FFF1F34A5FF1FF7B57749C4
:10344000044605F0C3FA80B9754F05460226E859CF
:1034500003F05EFC043502460B460096714800F00E
:1034600077F9B5F5806FF2D1C2E020466E4905F0DC
:10347000ADFA80B96D4F05460226E85903F048FCC5
:10348000083502460B460096664800F061F9B5F52E
:10349000006FF2D1ACE02046654905F097FA18B903
:1034A00060484FF4807106E02046624905F08EFACC
:1034B00020B95C480E2100F041F999E020465E49B0
:1034C00005F084FA20B95D4B0222C3F85C2E8FE030
:1034D00020465B4905F07AFA20B9584B5148D3F899
:1034E0005C1EE8E72046574905F070FA18B9564BBC
:1034F0004C481968DFE72046544905F0EFFD40B11C
:1035000004F1130004F08AFA03F0F0FE4E4B186049
:103510006EE020464E4905F0E1FD48B104F1090096
:1035200004F07CFA03F0E2FE444BC3F85C0E5FE06B
:103530002046484905F04AFA18B9434B3948D9683A
:10354000B9E720464449404D05F0C8FD38B104F1C3
:10355000110004F063FA03F0C9FEE86048E0204679
:103560003E4905F033FA08B9686812E020463C4944
:1035700005F0B4FD38B104F1140004F04FFA03F083
:10358000FDFE686034E02046364905F01FFA50B968
:10359000A86803F0BDFB0B460221024600912148BA
:1035A00000F0D6F824E020462F4905F097FD38B109
:1035B00004F1140004F032FA03F0E0FEA86017E012
:1035C00020462A4905F002FA20B91C4B1548D3F8C9
:1035D000601E70E72046264905F080FD40B104F1E9
:1035E0000F0004F01BFA03F081FE144BC3F8600EC9
:1035F00020461F4905F072FD28B1104B1D4893F875
:10360000601EFFF734FB104BDB682BB9194803B081
:10361000BDE8F040FFF78DBB03B0F0BD44030100EF
:10362000A4A0FF1F14A7FF1F53030100F096FF1F64
:103630005F0301006C03010080030100EC96FF1F93
:1036400089030100920301001088FF1FA5030100F8
:10365000B9030100C3030100D4030100E603010024
:10366000FA0301000F0401002304010038040100E3
:1036700047040100089FFF1F07B519E0FFF716F97F
:10368000C0B23B288DF807000AD006F0ABFE0DF162
:1036900007018DF807000122084805F0E3FA07E06A
:1036A0000648FFF7CBFE05480021412204F0A0FEAA
:1036B000FFF742F90028E1DC0EBD00BFA4A4FF1F04
:1036C00010B5134C86B0012300224FF4807101A87D
:1036D00001F04EFE211D01A802F004FC201D0D4941
:1036E0004FF4807202F098FC0B4BDB68012B0AD17F
:1036F000D4F85C3E13B1012B05D102E0FFF764FD65
:1037000001E0FFF7EFFCFFF7C3FD06B010BD00BFFF
:10371000EC96FF1FA4A0FF1F1088FF1F08B5FFF73E
:1037200011FE024B20221A6008BD00BF84F00F403A
:1037300010B5044600F098FD204610BD38B504468B
:1037400000F048FE0546204600F0E0FD281838BD90
:1037500037B59DF818100091044600F044FE054668
:10376000204600F0D3FD28183EBDFFFF70B5FFF7DF
:10377000BBFD62B6144C002640F2FF15FFF7CAFBF2
:1037800038B1D4F85C3E0133042BA8BF3346C4F8EB
:103790005C3EFFF771FFD4F85C3E032BEED8DFE808
:1037A00003F00202080B2368AB42E7DDFFF788FF56
:1037B000E4E706480F2102E0044894F8601EFFF792
:1037C00056FAFFF7BDFBD9E7EC96FF1F089FFF1FD6
:1037D0002DE9F04F8BB060264FF07C0A0821DFF80E
:1037E0000893009601960296039604960A4633467D
:1037F000CDF814A0CDF818A0AA48FFF721FB182790
:103800004FF01F0B1E2302930393052108225B46F2
:10381000CDF800B001970497CDF814B0CDF818B0EA
:1038200009F567606624FFF70BFB4FF06E084FF059
:10383000780C0821CDF818C06346CDF804800294B6
:103840000394CDF810800A46CDF800A0CDF814A05E
:103850009548CDF824C0FF25FFF7F2FA08210A4663
:103860002B460095019502950395049505950695BF
:103870008E48FFF7E5FA73207B217F226F238DE8C6
:103880000F006723082104936323059306930A46D8
:103890008748FFF7D5FADDF824C0CDF81480082159
:1038A000CDF808C0CDF80CC08DE8000506940A4696
:1038B0002346CDF810A009F56560FFF7C1FA4FF077
:1038C0007E083C238DE81800029405940694072195
:1038D00008223B46CDF80C80CDF810807548FFF7E4
:1038E000AFFA3C2300940194029403940494069349
:1038F00007212346CDF8148008226F48FFF7A0FA6D
:10390000DDF824C00196CDF808C0CDF80CC00496AF
:1039100005960696072143460822CDF800806748A1
:10392000FFF78EFA082101940294059606960A463E
:103930005346CDF80080CDF80C80CDF810A060483B
:10394000FFF77EFA072108224346CDF80080019751
:103950000297039704970597069709F56260FFF7AA
:103960006FFA9921C323A522029103910821012412
:1039700000930192049205930A462B4606955148FE
:10398000FFF75EFA21460822234600940194029430
:1039900003940494059406944B480026FFF750FACC
:1039A00008210A463346009601960296039604962D
:1039B000059606964548FFF743FACC21E123D2222B
:1039C00002910391082100930192049205930A4603
:1039D0002B46069509F56A60FFF732FA1E2302931B
:1039E0000F230393032304930E2306930521082238
:1039F000CDF800B00197CDF814B03548FFF720FAA4
:103A000021460822334600960196029603960496B4
:103A1000059606962F48FFF713FA2146334600967F
:103A200001960296039604960596069408222A4863
:103A3000FFF706FA214608223346009601960296C1
:103A4000039604960594069409F56D60FFF7F8F95E
:103A50002146082233460096019602960396049466
:103A6000059406941D48FFF7EBF9214608223346DA
:103A700000960196029603940494059406941848BF
:103A8000FFF7DEF92146082233460096019602949C
:103A900003940494059406941248FFF7D1F9214643
:103AA000082223E050A5FF1FE8A4FF1F149FFF1F5B
:103AB00030A5FF1FF4A4FF1F24A5FF1F00A5FF1FB3
:103AC00018A5FF1F68A5FF1F74A5FF1F80A5FF1F76
:103AD00098A5FF1FA4A5FF1FB0A5FF1FC8A5FF1F26
:103AE000D4A5FF1FE0A5FF1FEC96FF1F33460096ED
:103AF00001940294039404940594069409F570606B
:103B0000FFF79EF92146082223460094019402946F
:103B100003940494059406941248FFF791F9214602
:103B2000082223460094019402940394049405947B
:103B300006940D48FFF784F980230C490C4A0D4880
:103B400089F8113889F8046803F062FF06230093AE
:103B50003146022223460848FFF70BF90BB0BDE8B7
:103B6000F08F00BFF8A5FF1F04A6FF1F313700002C
:103B70006087FF1FF09EFF1F089FFF1FF0B5C02941
:103B800028BFC02172B6124B002283E805009A605C
:103B9000DA601A615A619A6101260AE0540903EB5E
:103BA000840402F01F07656806FA07F73D43656065
:103BB00001328A42F2D100234FF4827203E002FB09
:103BC0000304637001338B42F9D162B6F0BD00BFCC
:103BD00010A6FF1F30B572B61E4B586860B99868C2
:103BE00060B9D86860B9186960B9586960B99869EE
:103BF000183358B962B630BD043307E0083305E026
:103C00000C3303E0103301E01433FFE7B0FA80F423
:103C10004FF0004222FA04F220EA02000D4A186036
:103C2000117F0131C9B2117762B6101D1B1A9B10AA
:103C30005B011C1B4FF48273634303F5FB531C337E
:103C400014680125E554E018537F8B4238BF517743
:103C500030BD00BF10A6FF1F417872B60378012B5C
:103C600002D9013B037010E0094B4A1103EB8202B9
:103C7000C9434FF0004001F01F0120FA01F15068E4
:103C8000084350601A7F013A1A7762B6704700BF46
:103C900010A6FF1F30B5C3680EE0187A90420AD113
:103CA00058685C7A006950F8245025B940F824100F
:103CB000087801300870DB68002BEED130BD437A04
:103CC00099424FF0000305D2026952F8210042F8F0
:103CD000213070471846704738B5437A994201D36E
:103CE000002418E0036953F82140002243F8212002
:103CF000002CF5D02378012B0DD9FFF76BFF05467B
:103D000028B10430211D4FF4807204F051FA237859
:103D1000013B23702C46204638BD4368427A5B7ACB
:103D20009A420FD872B60268D36813B9D06004E023
:103D30000B46D9680029FBD1D86001231372426871
:103D4000137262B67047074B9A7F4AB9064AD02170
:103D50001170064A4FF0804101201160987770473A
:103D60000020704710A6FF1F5EE400E008E100E0BD
:103D7000034B4FF080421A60024B00229A77704743
:103D800088E100E010A6FF1FF8B5164B164D1A6823
:103D900042F080721A60154B1A6842F001021A60F4
:103DA000134B2E681C6A0FE0237A63B121682F68D9
:103DB0000B68204698472B68E288DB1B1B0993425F
:103DC000A38088BFE3806469002CEDD1064B1A689C
:103DD000074B921BD98C12098A429A8488BFDA84D5
:103DE000F8BD00BFFCED00E0041000E0001000E0B2
:103DF00010A6FF1F704708B50368C9B21B68984733
:103E000008BD08B50368C9B21B68984708BD08B566
:103E10000368C9B21B68984708BD08B50368C9B2F2
:103E20001B68984708BD084608B5FDF787FB0120C9
:103E300008BD084608B5FDF781FB012008BD38B56F
:103E400008460D46FCF78CFD044621462846FDF742
:103E5000BAFB204638BD10B5084614461146FDF79A
:103E6000B2FB204610BDFDF70DBCFDF747BCFDF7CA
:103E7000FDBBFDF71DBCFDF72FBCFDF70FBC0846D1
:103E8000FDF744BBFDF71CBB480800F1376000F5A7
:103E9000D830B0FBF1F0FDF7AFBA480800F1376059
:103EA00010B500F5D830B0FBF1F01446FDF7A4FAD8
:103EB0002046BDE81040FDF7D9BAFFFF044B0022B1
:103EC0001A711A73034A4FF47A7199601A60704735
:103ED00038A6FF1F60040100704708B50368C9B227
:103EE0001B68984708BD08B50368C9B21B689847A6
:103EF00008BD08B50368C9B21B68984708BD08B576
:103F00000368C9B21B68984708BD084608B5FDF7A5
:103F100043FD012008BD084608B5FDF73DFD012021
:103F200008BD38B508460D46FCF71AFD0446214683
:103F30002846FDF76DFD204638BD10B508461446ED
:103F40001146FDF765FD204610BDFDF7BFBDFDF72D
:103F5000F9BDFDF7AFBDFDF7CFBDFDF7E1BDFDF745
:103F6000C1BD0846FDF700BDFDF7D8BC480800F10B
:103F7000376000F5D830B0FBF1F0FDF76BBC4808B6
:103F800000F1376010B500F5D830B0FBF1F0144601
:103F9000FDF760FC2046BDE81040FDF795BCFFFF33
:103FA000044B00221A711A73034A4FF47A71996014
:103FB0001A60704748A6FF1FB0040100704708B59B
:103FC0000368C9B21B68984708BD08B50368C9B241
:103FD0001B68984708BD08B50368C9B21B689847B5
:103FE00008BD08B50368C9B21B68984708BD0846F4
:103FF00008B5FDF7BDFE012008BD084608B5FDF770
:10400000B7FE012008BD38B508460D46FCF7A8FCF0
:10401000044621462846FDF7E7FE204638BD10B588
:10402000084614461146FDF7DFFE204610BDFDF799
:10403000F1BEFDF72BBFFDF7E2BEFDF701BFFDF7B7
:1040400013BFFDF7F3BE0846FDF77ABEFDF752BE7B
:10405000480800F1B76000F55840B0FBF1F0FDF7FB
:10406000E9BD480800F1B76010B500F55840B0FB55
:10407000F1F01446FDF7DEFD2046BDE81040FDF7E7
:104080000FBEFFFF044B00221A711A73034A4FF44C
:104090007A7199601A60704758A6FF1F00050100E9
:1040A00070B506460D46002433190A2219792846B0
:1040B0000023013400F056F9042C05D02B68284663
:1040C0001B682E219847EFE7204670BD024B034A3C
:1040D0001A6000225A60704768A6FF1F5005010051
:1040E00008B5034B01221A60024B1B68984708BDB4
:1040F0000C71034070A6FF1F08B5034B01221A6024
:10410000024B5B68984708BD1C71034070A6FF1FF7
:1041100008B5034B01221A60024B9B68984708BD03
:104120002C71034070A6FF1F08B5034B01221A60D3
:10413000024BDB68984708BD3C71034070A6FF1F27
:10414000054B1A6842F400021A60044B00221A6000
:10415000034B01221A7470473C80044000700340F6
:1041600070A6FF1F054B01221A60054B1A6822F446
:1041700000021A60034B00221A747047007003405B
:104180003C80044070A6FF1FF0B54578134C144FD7
:104190002B011A194260134A9E188660066947F877
:1041A000256000259D501951032199504378427B89
:1041B0004433DBB2037303F1604303F5644301212D
:1041C0001A70037B5A11920002F1604202F56142BB
:1041D00003F01F0301FA03F31360F0BD0071034005
:1041E00070A6FF1F08710340F8B50D4B1B7C0646F7
:1041F0000F460BB9FFF7A4FF0024094D05F111028A
:10420000A25C42B97470304639462C19FFF7BCFFE6
:1042100001206074F8BD0134042CEED10020F8BDFB
:1042200070A6FF1F8268002310B51360027B012176
:10423000541102F01F0201FA02F2094941F8242048
:10424000084A4178511811324B74995C31B90133E5
:10425000042BFAD1BDE81040FFF784BF10BD00BFAA
:1042600080E100E070A6FF1F037810B504460BB193
:10427000FFF7D8FF0023237010BD037870B5044604
:104280000D4616461BB1FFF7CDFF002323702561B5
:1042900020463146FFF7A8FF10B10123237000E04C
:1042A0002070207870BD00BFF8B506460C468F1808
:1042B000002506E0336814F8011B1B683046984758
:1042C0002D18BC42F6D12846F8BD2DE9F041002555
:1042D0008AB0074688468C682E4611E02B46404639
:1042E00001A9212200F00BFC3B68202C34BF2246A0
:1042F00020225B68384601A9AD18A41A98473618E1
:10430000002CEBD130460AB0BDE8F08107B5054B73
:104310001B88ADF80430036801A95B680222984746
:104320000EBD00BF5805010008B503685B689847DB
:10433000002008BD0EB403B503AA52F8041B019275
:1043400006F08EF8BDE80C4003B070470EB403B51C
:1043500003AA52F8041B019206F082F8BDE80C4053
:1043600003B07047F0B505468BB022B90368C9B2F7
:104370001B6898472CE0012A08BF0A2221B9302285
:104380008DF82520212413E02124B1FBF2F002FB5B
:104390001011C9B2092901D8303100E037310AAF14
:1043A0003E1906F8241C014610B1013CE4B2ECE7CA
:1043B00033B1013C0AAAE4B213192D2203F8242CCC
:1043C0002B6801AF5B6828463919C4F1220298476F
:1043D0000BB0F0BD002902DA49422D2300E0002392
:1043E0000A22FFF7BFBF2DE9F347074691469A46D9
:1043F00010461946002200239DF8284002F04EFF87
:1044000020B10AF1004A4FF0010800E08046002682
:104410000022314B0AE0104619462DA3D3E90023B0
:1044200002F0CAFC013602460B46F6B2A642F2D1B1
:104430004846514602F00EFB0D46044602F07EFF50
:1044400081464346384649460A22FFF78BFF80469D
:10445000002E37D0484602F039FC072E28BF072629
:104460000B4602462946204602F0F2FA01362E2378
:104470008DF80030F6B24FF001091BE00022174B17
:1044800002F09AFC0D46044602F058FF02AA02EB25
:104490000903C0B200F1300203F8082C02F026FC38
:1044A00009F1010902460B46204629465FFA89F9BF
:1044B00002F0CEFAB145E1D13B6838465B68694607
:1044C0004A4698474046BDE8FC8700BFAFF30080EE
:1044D0009A9999999999B93F0000E03F00002440CA
:1044E00004480549054A00230372802343750830B8
:1044F00003F08EBA88A6FF1F313700006087FF1FC8
:1045000010B50446006803F07FFB204610BD38B5A7
:1045100004460D460068013103F0D4FF10B184E871
:104520002100012038BD43688B4210B5044600D3FA
:1045300006E0FFF7ECFF20B1A3680BB92268137007
:10454000012010BDF8B504460F46154622B9036890
:1045500003B11A7000230BE01146FFF7E4FF064693
:1045600040B9206810B103F04FFB26600023636060
:10457000A36004E0A5602068394604F015FB2046DE
:10458000F8BD002310B504460360436083600373E5
:1045900000F06CFC204610BD38B5002304460360D3
:1045A0004360836003730D4639B10846FCF7D8F9C0
:1045B000294602462046FFF7C5FF204638BD38B5DC
:1045C000054600680C4660B16A688B689A4206D35B
:1045D000096804F0E9FAA368AB6000230AE003F07D
:1045E00013FB23682B6063686B60A368AB600023D8
:1045F00023606360A36038BD002310B504460360E8
:10460000436083600373FFF7DAFF204610BD002389
:1046100010B504460360436083600373FFF7CFFF68
:10462000204610BD81420B4603D009689A68FFF707
:1046300089BF7047002310B5044603604360836060
:104640000373FFF7EFFF204610BD884210B5044604
:1046500001D0FFF7B4FF204610BD884210B50446D4
:1046600001D0FFF7ACFF204610BD38B505460C461B
:1046700041B10846FCF774F9214602462846FFF787
:1046800061FF00E0A960284638BD10B500238AB05C
:10469000044603604360836003736B460846911CC5
:1046A000FCF794F901462046FFF7DFFF20460AB0E9
:1046B00010BD10B500238AB00446036043608360D8
:1046C0000373084601A9FCF753F9204601A9FFF737
:1046D000CCFF20460AB010BD10B500238AB00446B6
:1046E0000360436083600373084601A9FCF75EF929
:1046F000204601A9FFF7B9FF20460AB010BD10B54A
:10470000002386B004460360436083600373084659
:1047100001A9FCF72DF9204601A9FFF7A6FF2046C5
:1047200006B010BD10B5002386B004460360436098
:1047300083600373084601A9FCF738F9204601A9F4
:10474000FFF793FF204606B010BD13B500230446C3
:1047500003604360836003730A22084601A9FCF7E3
:1047600007F9204601A9FFF780FF20461CBD10B5C0
:10477000044600F07BFB204610BD07B500238DF8F2
:104780000410012201A98DF80530FFF7DBFE0EBDF4
:10479000002310B504460360436083600373FFF792
:1047A000ECFF204610BD70B504460E4685685AB130
:1047B00055192946FFF7B7FE30B12068A368314686
:1047C000C01804F0F1F9A560204670BD0B460968D9
:1047D0009A68FFF7E8BF38B505460C4639B1084678
:1047E000FCF7BEF8214602462846FFF7DCFF2846C4
:1047F00038BD13B5002304468DF80410012201A929
:104800008DF80530FFF7CFFF20461CBD1FB50446CD
:104810000A22084601A9FCF7C9F801A8FCF7A0F88C
:1048200001A902462046FFF7BEFF204604B010BD96
:104830001FB504460A22084601A9FCF799F801A809
:10484000FCF78EF801A902462046FFF7ACFF204690
:1048500004B010BD1FB504460A22084601A9FCF7A2
:10486000A5F801A8FCF77CF801A902462046FFF74D
:104870009AFF204604B010BD1FB504460A22084620
:1048800001A9FCF775F801A8FCF76AF801A902462E
:104890002046FFF788FF204604B010BD10B588B051
:1048A000044602226B4608460421FCF78FF868464E
:1048B000FCF756F8694602462046FFF774FF20468B
:1048C00008B010BD0B4610B509689A680446FFF79A
:1048D0006AFF204610BD38B505460C4639B108467A
:1048E000FCF73EF8214602462846FFF75CFF2846C3
:1048F00038BD38B5044608460D46FCF731F8294660
:1049000002462046FFF74FFF204638BD10B504464B
:10491000FFF76FFF204610BD10B50446FFF776FF86
:10492000204610BD10B50446FFF794FF204610BD89
:1049300010B50446FFF7A0FF204610BD10B5044691
:10494000FFF788FF204610BD10B50446FFF794FF1F
:10495000204610BD10B50446FFF7A0FF204610BD4D
:1049600010B519460446104602F008FD01462046DF
:10497000FFF794FF204610BD03680A680BB15AB9CF
:1049800005E022B1896811B11078404270473BB10F
:10499000806830B1187870471846114604F016B890
:1049A0001846704708B582688B689A4206D1FFF7AF
:1049B000E3FFD0F1010038BF002008BD002008BD92
:1049C000826808B50B461AB901B103E0012008BDA1
:1049D00011B90368187802E0006803F0F7FFD0F11E
:1049E000010038BF002008BD08B5FFF7C5FFC00FA4
:1049F00008BD08B5FFF7C0FF0028D4BF0020012084
:104A000008BD08B5FFF7B8FF0028CCBF0020012083
:104A100008BD08B5FFF7B0FFC043C00F08BD88420E
:104A2000F8B514D083688A68934212D17BB10668C6
:104A30000D68002408E005F0C7FC0746285D05F076
:104A4000C3FC0134874204D1305D0028F3D101203A
:104A5000F8BD0020F8BD10B58B688468E41AA24246
:104A60000CD8006868B1096851B180181A4604F082
:104A70002BF9D0F1010038BF002010BD002010BD7F
:104A8000084610BD82688B689A4202D30022FFF765
:104A9000E2BF0020704708B582688B689A420CD349
:104AA000006868B1096851B1D31AC01803F08EFFCD
:104AB000D0F1010038BF002008BD002008BD084625
:104AC00008BD836899423CBF03685A5470478368A5
:104AD000994201D2006818B9024800230370704758
:104AE00040187047A8A6FF1F8368994203D2006848
:104AF00010B1405C704700207047FFF7F5BF38B534
:104B00000C469AB191B181688B4202D30023237085
:104B100038BDCD1A013A0168954228BF1546C9181B
:104B200020462A4604F026F90023635538BD8368E1
:104B30009A4210B506D20468A01803F0C7FE08B167
:104B4000001B10BD4FF0FF3010BD0022FFF7EFBF7C
:104B500083689A4210B507D204680968A01804F067
:104B6000BDFA08B1001B10BD4FF0FF3010BD002290
:104B7000FFF7EEBFF8B583689A42044602D34FF0C0
:104B8000FF30F8BD0368551C00225F5D5A5506686A
:104B9000304604F021F977550028F0D02368C01A78
:104BA000F8BD8268013AFFF7E5BF2DE9F0411546EF
:104BB0008A680F46CAB18368BBB19A4215D80668A5
:104BC0009D4228BF5D1E30464FF0FF3406EB0508BE
:104BD00008E0396804F082FA48B1831BAB4298BF01
:104BE0001C4601304045F4D901E04FF0FF34204627
:104BF000BDE8F08182688B68D21AFFF7D6BF9A426F
:104C0000F8B504460D4602D911461A460B46002057
:104C1000A060AE682060B242606020730CD8B342DE
:104C200038BF1E462B689F5D985529682046891815
:104C3000FFF71BFD2B689F552046F8BD10B58B680C
:104C40000446FFF7DCFF204610BD036810B543B1F2
:104C500003E08C4208BF03F8012C13F8014B002C31
:104C6000F7D110BD2DE9F74FD0F808A004460F4644
:104C70001646BAF1000F7CD0D1F808B0BBF1000F96
:104C800077D093680568CBEB0308B8F1000F0ED11D
:104C900005E03168B26803F08BFAB368ED18284676
:104CA000396804F01BFA05460028F2D161E001DA08
:104CB000A94616E00B68D14622E0C5EB0A0B29464F
:104CC00048465A46D94403F073FA48463168B268F8
:104CD00003F06EFAB368BD689944A3684344554431
:104CE000A3602846396804F0F9F982460028E4D127
:104CF0004846294603F058FF3BE000EB0B05C14452
:104D000019462846019304F0E9F9019B0028F4D1E3
:104D1000D1452ED0636899450ED920464946FFF704
:104D2000F6FB30B308E0002A23DB20463946FFF7C4
:104D30003CFF051E05DA1CE0A2684FF00009013AAD
:104D4000F1E7BA682168A368AA18891801EB08007E
:104D50009A1A03F0E7FAA36822684344A36002F8B2
:104D600003902068B2683168401903F021FA6A1E86
:104D7000D9E72046BDE8FE8F8368994203D20368D5
:104D8000816000225A54704738B50B4681688B42C7
:104D9000044612D28AB1D018884288BFC3EB010200
:104DA0008D1A2168A560D218C8188918EA1A03F06C
:104DB000B9FA2268A3680021D154204638BD38B51D
:104DC0000468054644B103E005F0FEFA04F8010C5E
:104DD00014F8010B0028F7D1284638BD38B504680F
:104DE000054644B103E005F0FDFA04F8010C14F89F
:104DF000010B0028F7D1284638BD2DE9F04107689E
:104E0000044627B3866816B3B846454608F101083C
:104E1000287802F0E7FE0028F7D1013EBE1930786D
:104E200002F0E0FE28B90136721BBD42A26007D92C
:104E300002E0AE4209D2F6E73846294603F0B8F957
:104E40002268A3680021D15401E0013EE7E7204633
:104E5000BDE8F081006808B102F0E4BD7047006869
:104E600010B1002105F0AEB90020704738B50546F5
:104E700008460C46FBF774FD214602462846BDE86D
:104E80003840FFF75FBBFFFF054AD37803F002030A
:104E9000DBB2002BF9D0024B0222DA70704700BF60
:104EA0000060064010B50A4B1A781C460AB95B78B8
:104EB0002BB1A378064A202B03D9012303710020CC
:104EC00010BDD0180133C1709370012010BD00BF18
:104ED000ACA6FF1F7047034B93F8240093F82530CE
:104EE000C01A7047ACA6FF1F084B93F8252093F813
:104EF0002410914206D99918013291F8260083F8BE
:104F0000252070474FF0FF30704700BFACA6FF1F51
:104F1000064B93F8252093F82410914203D99B184F
:104F200093F8260070474FF0FF307047ACA6FF1F84
:104F300070B50D4B1D7814461A460DB95B7883B1D8
:104F40009578C5F121039C4202D9012202711C46C9
:104F5000054EF01C401922462D1903F029F9B570B1
:104F600000E01C46204670BDACA6FF1F38B5104BB4
:104F7000104CDB7813F020050AD11220FBF712FF4A
:104F8000A36CA3B184F8255094F82400984738BD49
:104F900094F84C300133DBB2012B84F84C3001D84B
:104FA000637823B91220BDE83840FBF7FBBE38BD5B
:104FB00000600640ACA6FF1F002202710273034A84
:104FC0004FF47A7181600260704700BF780501007C
:104FD0000B4B00225A700B4B1A6842F040021A60C9
:104FE000094A4FF41973136042F8043C074B272217
:104FF0005A7004229A7120225A7180229A70704746
:10500000ACA6FF1F348004400CA0044000600640A2
:1050100010B50C46FFF7DCFF064B074A6400012180
:105020001C705170C0229A70044B4FF080721A604D
:1050300010BD00BF00600640ACA6FF1F00E100E00D
:1050400038B5384AD37803F01001C9B221B903F05A
:105050004002D2B242B92CE01021D17003F04002DC
:10506000D2B2002AF3D138BD13F004032E4C16D06F
:10507000002384F84D30A370236D03B19847A278C4
:10508000294B12B901219970DA70264AD023937006
:10509000254BD9781171012283F854203DE084F822
:1050A000243001221F4B84F84D20C0229A701B79B6
:1050B00033E01C4CA27812F0100218D013F0010358
:1050C00011D1194A92F854109078884206D9531891
:1050D0000131DB78237182F8541000E02371114B09
:1050E000D0229A7019E0C023A370237915E00E4DE9
:1050F0000E4985F84C2012200322FBF70DFE95F88F
:10510000243021791F2B08D895F84D202AB1EA18B0
:10511000013382F8261085F82430024B0222DA701F
:1051200038BD00BF00600640ACA6FF1F6D4F0000F9
:10513000034B01224900D9701A709A70704700BF62
:10514000ACA6FF1FF8B51D4B1222DA709A7802F058
:105150002002D2B20F460AB1B42209E0DA7802F096
:105160002002D2B2002AF9D1154B5A70134BB0224B
:105170009A700024124D114E12E02B19DB78337116
:10518000FFF782FEF378DA0704D5002C14BF032062
:1051900002200BE003F01003DBB233B90134E4B2B8
:1051A000AB78A342E9D8002000E0042017B1034BFC
:1051B00080229A70024B00221A70F8BD00600640EF
:1051C000ACA6FF1F2DE9F0471F46334B14460022C3
:1051D00083F8252083F82420304A1223D370937853
:1051E00003F02003DBB213B1B42393700AE0D37849
:1051F00003F02003DBB2002BF9D1274A5370274B71
:10520000B0229A70254D490041F001012971FFF744
:105210003BFEEB7813F0110F2A4604D08023AB70CD
:105220000020BDE8F0872CB9002F0CBFA0278027F5
:10523000AF70F5E7012C01D1A82300E0A023937003
:105240001379DFF85C80DFF8549025464FF0A80A08
:105250000BE0013DEDB2FFF717FE012D08BF89F805
:1052600002A099F8043008F8013F012D0B4EF0D14F
:10527000FFF70AFEB023B370074B3179621E53FA71
:1052800082F2204682F826100FB18022B27083F895
:105290002440BDE8F08700BFACA6FF1F00600640B9
:1052A000D1A6FF1F0123FFF78DBFC9B2D2B20123E0
:1052B000FFF788BFC9B2D2B2DBB2FFF783BFC9B272
:1052C000FFF736BF0121FFF73DBFC9B2FFF7A0BE10
:1052D000014B9964704700BFACA6FF1F014B1965D5
:1052E000704700BFACA6FF1F0148FFF765BE00BFB7
:1052F00004A7FF1F704708461146FDF781BB08460B
:10530000FDF7DCBBFDF706BCFDF7F8BAFDF7CEBA3A
:10531000FDF712BB044B00221A711A73034A4FF4B3
:105320007A7199601A60704714A7FF1F98050100F1
:1053300008B50E4B1A78C2B901221A70FDF7FCFAB3
:1053400008B1FFF7D7FFFCF7A9F908B1FEF752FD46
:10535000FCF7C8FB08B1FEF7BFFDFCF767FD08B11D
:10536000FEF72CFE014B00221A7008BD24A7FF1F78
:1053700010B4254C0180B1F5807F44608270C37009
:1053800037D009D9B1F5806F1ED0B1F5805F11D04B
:10539000FF2040B210BC7047102920D04029F7D11F
:1053A0001A494FF040134FF072528160C36002619E
:1053B0000020EEE7164A4FF001114FF0665382606D
:1053C000C16003610020E4E712494FF004134FF07D
:1053D0006A5C8160C360C0F810C00020D9E70E4944
:1053E0004FF001234FF076528160C36002610020CC
:1053F000CFE70A494FF010134FF06E528160C3603F
:1054000002610020C5E700BF30970100AEF7010040
:1054100030F7010036F701002EF901004EF70100C8
:105420002DE9F04FA9B01493149B16918908CE0072
:10543000DF001591269024920D01341D1A0110965B
:10544000179103EB430626991197159B249F0F95FF
:10545000F0004D190C19129213900E460793B8469E
:10546000B946109B54F8041CEA58686808920F9AD1
:10547000D5F800B0D6F800A0059104907168A05846
:1054800023680391099059465046069301F0CCFFDA
:1054900008990A90059801F0C7FF04990B900398AA
:1054A00001F0C2FF09990C90069801F0BDFF594622
:1054B0000D90504601F0B6FF08990E90059801F046
:1054C000B1FF04990590039801F0ACFF0999824659
:1054D000069801F0A7FF0B9983460A9801F0A4FFF4
:1054E000D9F800100391D9F804300D9930600C9868
:1054F000049301F099FF594670600E9801F094FFF3
:1055000005990890504601F08DFF0B9909900A9873
:1055100001F088FF0D990A900C9801F083FF59461D
:105520000B900E9801F07EFF51460C90059801F00B
:105530007BFFD8F800B07968D8F804200D90069168
:1055400008980592594602F077F859460E90099846
:10555000D7F800A002F070F8039984460A98CDF8B5
:1055600004C002F069F8039983460B9802F064F8CE
:10557000514603460C98029302F05EF851460390A0
:105580000D9802F059F8049982460B9802F054F8ED
:10559000594601F049FF844644F804CC04990A981E
:1055A00002F04AF80146029801F03CFF059920609C
:1055B000099802F041F80E9901F036FF059928602C
:1055C000089802F039F8DDF804B00146584601F0B9
:1055D00029FF069968600D9802F02EF8039901F0F2
:1055E00023FF109A0699A8500C9802F025F801465E
:1055F000504601F017FF0F9BE0501298079B11993E
:10560000139A0836083508348144581E88441744D4
:1056100007907FF426AF159FBBB2042B279340F26F
:1056200039811498179A25938600B5B2239590086E
:105630002290229C229E239D23992398F700631E8B
:1056400005EB450513972093269BCA000601249974
:1056500017981C9304EB4407EC00139D229B1D92AA
:105660001E961F941B911A9119910022C6002C1DA1
:10567000F9001892149621941B011591199D199FF8
:105680001A9A1A992E687C681B9D1B9FD2F800807D
:105690004868189A16990D960E942E687C68CDF875
:1056A0003C80914210901196129440F2D0801C9947
:1056B000219A189855180C46079054F803A0E858FA
:1056C000D4F800B02968139A159E049003915846A7
:1056D000514654F8068055F8049CAE58676800930C
:1056E00001F0A0FE41460590484601F09BFE314680
:1056F0000690384601F096FE04990890039801F050
:1057000091FE51460990584601F08EFE41460A909E
:10571000484601F089FE31460B90384601F084FE80
:1057200004990C90039801F07FFE0999834605982F
:1057300001F07AFE06990746089801F073FE0B996E
:1057400080460A9801F06EFE594681460C9801F099
:1057500069FE09998246059801F064FE0390069857
:10576000089901F061FE0B9906460A9801F05CFE6B
:10577000594620600C9801F057FE0D99606038463C
:1057800001F05AFF0D9984464046CDF804C001F05F
:1057900053FF0F990490484601F04EFF0F9983463E
:1057A000504601F049FF119902460398029201F018
:1057B00043FF11990590304601F03EFF1099069085
:1057C000504601F039FF594601F02EFE109945F878
:1057D000040C484601F030FF0146029801F022FE19
:1057E00003462B600E99404601F026FFDDF8049039
:1057F000494601F019FE009AA05038460E990092D1
:1058000001F01AFF0146049801F00CFE139B129957
:10581000E850304601F010FF059901F005FE159F94
:105820001299E051039801F007FF0146069801F034
:10583000F9FD079A1799169F53180793009B079E27
:10584000E8501498B742044405443FF636AF189E1A
:1058500019991D9A1A9C1E9D701C8F181890661914
:105860001B9A19971F981C9F209D189C1A96083701
:105870001118A5421B911C97BFF400AF2399259FD7
:105880008D00BC08ABB2042C2594239302D9229A34
:105890001792CCE6269C279BD4F800B0D4F8109041
:1058A0006568666900934946584601F0BDFD494662
:1058B0000746584601F0B6FD31460790284601F0EC
:1058C000B3FD31460390284601F0ACFDD4F818A092
:1058D000D4F808B004905146584601F0A5FDD4F81C
:1058E0001C80D4F80C9006464146484601F09CFDC9
:1058F00031460546384601F097FD5146206058462E
:1059000001F090FD29468246039801F08DFD414645
:105910006060484601F086FD31468046384601F019
:1059200081FD2946A060039801F07CFD4146E060BE
:10593000079801F079FD51462061049801F072FD4D
:1059400041466061079801F06DFD0499A0615046E1
:1059500001F06AFDE061009A2034531E9CD129B009
:10596000BDE8F08F2DE9F04FA9B01493149B169168
:105970008908CE001591269024921A010D01DF00AE
:10598000341D1096179103EB430626991292159B2E
:10599000249A0F95F00011974D190C191390079246
:1059A0000E46039317469046109B6868EA58D5F850
:1059B00000B008920F9AD6F800A071680590A05820
:1059C00023680491099059465046069301F02CFD36
:1059D00054F8049C08990A90484601F025FD059961
:1059E0000B90049801F020FD09990C90069801F0A5
:1059F0001BFD59460D90504601F014FD08990E907C
:105A0000484601F00FFD05998146049801F00AFD12
:105A100009998246069801F005FD0B9983460A987C
:105A200001F002FD07990B680493079A51683060F2
:105A300005910C980D9901F0F7FC594670600E988D
:105A400001F0F0FC49460890504601F0EDFC0B993E
:105A500009900A9801F0E6FC0D990A900C9801F063
:105A6000E1FC59460B900E9801F0DEFC49460C9083
:105A7000504601F0D7FCD7F800B00D90D8F80400DC
:105A8000D8F800A0069059460898D7F8049001F07D
:105A9000D3FD59460E90099801F0CEFD0499844635
:105AA0000A98CDF804C001F0C7FD049983460B980D
:105AB00001F0C2FD514603460C98029301F0BCFD73
:105AC000514604900D9801F0B7FD059982460B9858
:105AD00001F0B2FD0146584601F0A4FC8346059949
